{
  "_format": "hh3-artifact-1",
  "contractName": "BridgeCore",
  "sourceName": "contracts/BridgeCore.sol",
  "abi": [
    {
      "inputs": [
        {
          "internalType": "address",
          "name": "_initialOwner",
          "type": "address"
        },
        {
          "internalType": "address",
          "name": "_initialFeeReceiver",
          "type": "address"
        },
        {
          "internalType": "address",
          "name": "_initialRelayer",
          "type": "address"
        }
      ],
      "stateMutability": "nonpayable",
      "type": "constructor"
    },
    {
      "inputs": [],
      "name": "BridgeCore__AlreadyProcessed",
      "type": "error"
    },
    {
      "inputs": [],
      "name": "BridgeCore__AmountTooLarge",
      "type": "error"
    },
    {
      "inputs": [],
      "name": "BridgeCore__AmountTooSmall",
      "type": "error"
    },
    {
      "inputs": [],
      "name": "BridgeCore__FeeTooHigh",
      "type": "error"
    },
    {
      "inputs": [],
      "name": "BridgeCore__InvalidAmount",
      "type": "error"
    },
    {
      "inputs": [],
      "name": "BridgeCore__NoFeesAvailable",
      "type": "error"
    },
    {
      "inputs": [],
      "name": "BridgeCore__NotRelayer",
      "type": "error"
    },
    {
      "inputs": [],
      "name": "BridgeCore__TokenNotCanonical",
      "type": "error"
    },
    {
      "inputs": [],
      "name": "BridgeCore__TokenNotWhitelisted",
      "type": "error"
    },
    {
      "inputs": [],
      "name": "BridgeCore__TokenNotWrapped",
      "type": "error"
    },
    {
      "inputs": [],
      "name": "BridgeCore__ZeroAddress",
      "type": "error"
    },
    {
      "inputs": [],
      "name": "EnforcedPause",
      "type": "error"
    },
    {
      "inputs": [],
      "name": "ExpectedPause",
      "type": "error"
    },
    {
      "inputs": [
        {
          "internalType": "address",
          "name": "owner",
          "type": "address"
        }
      ],
      "name": "OwnableInvalidOwner",
      "type": "error"
    },
    {
      "inputs": [
        {
          "internalType": "address",
          "name": "account",
          "type": "address"
        }
      ],
      "name": "OwnableUnauthorizedAccount",
      "type": "error"
    },
    {
      "inputs": [],
      "name": "ReentrancyGuardReentrantCall",
      "type": "error"
    },
    {
      "inputs": [
        {
          "internalType": "address",
          "name": "token",
          "type": "address"
        }
      ],
      "name": "SafeERC20FailedOperation",
      "type": "error"
    },
    {
      "anonymous": false,
      "inputs": [
        {
          "indexed": true,
          "internalType": "address",
          "name": "wrappedToken",
          "type": "address"
        },
        {
          "indexed": true,
          "internalType": "address",
          "name": "sender",
          "type": "address"
        },
        {
          "indexed": false,
          "internalType": "uint256",
          "name": "grossAmount",
          "type": "uint256"
        },
        {
          "indexed": false,
          "internalType": "uint256",
          "name": "netAmount",
          "type": "uint256"
        },
        {
          "indexed": false,
          "internalType": "uint256",
          "name": "feeAmount",
          "type": "uint256"
        },
        {
          "indexed": false,
          "internalType": "uint256",
          "name": "nonce",
          "type": "uint256"
        },
        {
          "indexed": false,
          "internalType": "uint256",
          "name": "destChainId",
          "type": "uint256"
        },
        {
          "indexed": true,
          "internalType": "bytes32",
          "name": "destRecipient",
          "type": "bytes32"
        }
      ],
      "name": "BurnedWrapped",
      "type": "event"
    },
    {
      "anonymous": false,
      "inputs": [
        {
          "indexed": false,
          "internalType": "uint256",
          "name": "oldFeeBps",
          "type": "uint256"
        },
        {
          "indexed": false,
          "internalType": "uint256",
          "name": "newFeeBps",
          "type": "uint256"
        }
      ],
      "name": "FeeBpsUpdated",
      "type": "event"
    },
    {
      "anonymous": false,
      "inputs": [
        {
          "indexed": true,
          "internalType": "address",
          "name": "oldReceiver",
          "type": "address"
        },
        {
          "indexed": true,
          "internalType": "address",
          "name": "newReceiver",
          "type": "address"
        }
      ],
      "name": "FeeReceiverUpdated",
      "type": "event"
    },
    {
      "anonymous": false,
      "inputs": [
        {
          "indexed": true,
          "internalType": "address",
          "name": "token",
          "type": "address"
        },
        {
          "indexed": true,
          "internalType": "address",
          "name": "to",
          "type": "address"
        },
        {
          "indexed": false,
          "internalType": "uint256",
          "name": "amount",
          "type": "uint256"
        }
      ],
      "name": "FeesWithdrawn",
      "type": "event"
    },
    {
      "anonymous": false,
      "inputs": [
        {
          "indexed": true,
          "internalType": "address",
          "name": "token",
          "type": "address"
        },
        {
          "indexed": true,
          "internalType": "address",
          "name": "sender",
          "type": "address"
        },
        {
          "indexed": false,
          "internalType": "uint256",
          "name": "grossAmount",
          "type": "uint256"
        },
        {
          "indexed": false,
          "internalType": "uint256",
          "name": "netAmount",
          "type": "uint256"
        },
        {
          "indexed": false,
          "internalType": "uint256",
          "name": "feeAmount",
          "type": "uint256"
        },
        {
          "indexed": false,
          "internalType": "uint256",
          "name": "nonce",
          "type": "uint256"
        },
        {
          "indexed": false,
          "internalType": "uint256",
          "name": "destChainId",
          "type": "uint256"
        },
        {
          "indexed": true,
          "internalType": "bytes32",
          "name": "destRecipient",
          "type": "bytes32"
        }
      ],
      "name": "LockedCanonical",
      "type": "event"
    },
    {
      "anonymous": false,
      "inputs": [
        {
          "indexed": true,
          "internalType": "address",
          "name": "wrappedToken",
          "type": "address"
        },
        {
          "indexed": true,
          "internalType": "address",
          "name": "recipient",
          "type": "address"
        },
        {
          "indexed": false,
          "internalType": "uint256",
          "name": "amount",
          "type": "uint256"
        },
        {
          "indexed": true,
          "internalType": "bytes32",
          "name": "eventId",
          "type": "bytes32"
        }
      ],
      "name": "MintedWrapped",
      "type": "event"
    },
    {
      "anonymous": false,
      "inputs": [
        {
          "indexed": true,
          "internalType": "address",
          "name": "previousOwner",
          "type": "address"
        },
        {
          "indexed": true,
          "internalType": "address",
          "name": "newOwner",
          "type": "address"
        }
      ],
      "name": "OwnershipTransferred",
      "type": "event"
    },
    {
      "anonymous": false,
      "inputs": [
        {
          "indexed": false,
          "internalType": "address",
          "name": "account",
          "type": "address"
        }
      ],
      "name": "Paused",
      "type": "event"
    },
    {
      "anonymous": false,
      "inputs": [
        {
          "indexed": true,
          "internalType": "address",
          "name": "oldRelayer",
          "type": "address"
        },
        {
          "indexed": true,
          "internalType": "address",
          "name": "newRelayer",
          "type": "address"
        }
      ],
      "name": "RelayerUpdated",
      "type": "event"
    },
    {
      "anonymous": false,
      "inputs": [
        {
          "indexed": true,
          "internalType": "address",
          "name": "token",
          "type": "address"
        },
        {
          "indexed": false,
          "internalType": "bool",
          "name": "isWhitelisted",
          "type": "bool"
        },
        {
          "indexed": false,
          "internalType": "bool",
          "name": "isCanonical",
          "type": "bool"
        },
        {
          "indexed": false,
          "internalType": "uint256",
          "name": "minAmount",
          "type": "uint256"
        },
        {
          "indexed": false,
          "internalType": "uint256",
          "name": "maxAmount",
          "type": "uint256"
        }
      ],
      "name": "TokenConfigUpdated",
      "type": "event"
    },
    {
      "anonymous": false,
      "inputs": [
        {
          "indexed": true,
          "internalType": "address",
          "name": "token",
          "type": "address"
        },
        {
          "indexed": true,
          "internalType": "address",
          "name": "recipient",
          "type": "address"
        },
        {
          "indexed": false,
          "internalType": "uint256",
          "name": "amount",
          "type": "uint256"
        },
        {
          "indexed": true,
          "internalType": "bytes32",
          "name": "eventId",
          "type": "bytes32"
        }
      ],
      "name": "UnlockedCanonical",
      "type": "event"
    },
    {
      "anonymous": false,
      "inputs": [
        {
          "indexed": false,
          "internalType": "address",
          "name": "account",
          "type": "address"
        }
      ],
      "name": "Unpaused",
      "type": "event"
    },
    {
      "inputs": [
        {
          "internalType": "address",
          "name": "wrappedToken",
          "type": "address"
        },
        {
          "internalType": "uint256",
          "name": "amount",
          "type": "uint256"
        },
        {
          "internalType": "uint256",
          "name": "destChainId",
          "type": "uint256"
        },
        {
          "internalType": "bytes32",
          "name": "destRecipient",
          "type": "bytes32"
        }
      ],
      "name": "burnWrapped",
      "outputs": [],
      "stateMutability": "nonpayable",
      "type": "function"
    },
    {
      "inputs": [
        {
          "internalType": "address",
          "name": "",
          "type": "address"
        }
      ],
      "name": "collectedFees",
      "outputs": [
        {
          "internalType": "uint256",
          "name": "",
          "type": "uint256"
        }
      ],
      "stateMutability": "view",
      "type": "function"
    },
    {
      "inputs": [],
      "name": "feeBps",
      "outputs": [
        {
          "internalType": "uint256",
          "name": "",
          "type": "uint256"
        }
      ],
      "stateMutability": "view",
      "type": "function"
    },
    {
      "inputs": [],
      "name": "feeReceiver",
      "outputs": [
        {
          "internalType": "address",
          "name": "",
          "type": "address"
        }
      ],
      "stateMutability": "view",
      "type": "function"
    },
    {
      "inputs": [
        {
          "internalType": "address",
          "name": "token",
          "type": "address"
        },
        {
          "internalType": "uint256",
          "name": "amount",
          "type": "uint256"
        },
        {
          "internalType": "uint256",
          "name": "destChainId",
          "type": "uint256"
        },
        {
          "internalType": "bytes32",
          "name": "destRecipient",
          "type": "bytes32"
        }
      ],
      "name": "lockCanonical",
      "outputs": [],
      "stateMutability": "nonpayable",
      "type": "function"
    },
    {
      "inputs": [
        {
          "internalType": "address",
          "name": "wrappedToken",
          "type": "address"
        },
        {
          "internalType": "address",
          "name": "to",
          "type": "address"
        },
        {
          "internalType": "uint256",
          "name": "amount",
          "type": "uint256"
        },
        {
          "internalType": "bytes32",
          "name": "eventId",
          "type": "bytes32"
        }
      ],
      "name": "mintFromLock",
      "outputs": [],
      "stateMutability": "nonpayable",
      "type": "function"
    },
    {
      "inputs": [],
      "name": "nonce",
      "outputs": [
        {
          "internalType": "uint256",
          "name": "",
          "type": "uint256"
        }
      ],
      "stateMutability": "view",
      "type": "function"
    },
    {
      "inputs": [],
      "name": "owner",
      "outputs": [
        {
          "internalType": "address",
          "name": "",
          "type": "address"
        }
      ],
      "stateMutability": "view",
      "type": "function"
    },
    {
      "inputs": [],
      "name": "pause",
      "outputs": [],
      "stateMutability": "nonpayable",
      "type": "function"
    },
    {
      "inputs": [],
      "name": "paused",
      "outputs": [
        {
          "internalType": "bool",
          "name": "",
          "type": "bool"
        }
      ],
      "stateMutability": "view",
      "type": "function"
    },
    {
      "inputs": [
        {
          "internalType": "bytes32",
          "name": "",
          "type": "bytes32"
        }
      ],
      "name": "processedEvents",
      "outputs": [
        {
          "internalType": "bool",
          "name": "",
          "type": "bool"
        }
      ],
      "stateMutability": "view",
      "type": "function"
    },
    {
      "inputs": [],
      "name": "relayer",
      "outputs": [
        {
          "internalType": "address",
          "name": "",
          "type": "address"
        }
      ],
      "stateMutability": "view",
      "type": "function"
    },
    {
      "inputs": [],
      "name": "renounceOwnership",
      "outputs": [],
      "stateMutability": "nonpayable",
      "type": "function"
    },
    {
      "inputs": [
        {
          "internalType": "uint256",
          "name": "_feeBps",
          "type": "uint256"
        }
      ],
      "name": "setFeeBps",
      "outputs": [],
      "stateMutability": "nonpayable",
      "type": "function"
    },
    {
      "inputs": [
        {
          "internalType": "address",
          "name": "_feeReceiver",
          "type": "address"
        }
      ],
      "name": "setFeeReceiver",
      "outputs": [],
      "stateMutability": "nonpayable",
      "type": "function"
    },
    {
      "inputs": [
        {
          "internalType": "address",
          "name": "_relayer",
          "type": "address"
        }
      ],
      "name": "setRelayer",
      "outputs": [],
      "stateMutability": "nonpayable",
      "type": "function"
    },
    {
      "inputs": [
        {
          "internalType": "address",
          "name": "token",
          "type": "address"
        },
        {
          "internalType": "bool",
          "name": "isWhitelisted",
          "type": "bool"
        },
        {
          "internalType": "bool",
          "name": "isCanonical",
          "type": "bool"
        },
        {
          "internalType": "uint256",
          "name": "minAmount",
          "type": "uint256"
        },
        {
          "internalType": "uint256",
          "name": "maxAmount",
          "type": "uint256"
        }
      ],
      "name": "setTokenConfig",
      "outputs": [],
      "stateMutability": "nonpayable",
      "type": "function"
    },
    {
      "inputs": [
        {
          "internalType": "address",
          "name": "",
          "type": "address"
        }
      ],
      "name": "tokenConfigs",
      "outputs": [
        {
          "internalType": "bool",
          "name": "isWhitelisted",
          "type": "bool"
        },
        {
          "internalType": "bool",
          "name": "isCanonical",
          "type": "bool"
        },
        {
          "internalType": "uint256",
          "name": "minAmount",
          "type": "uint256"
        },
        {
          "internalType": "uint256",
          "name": "maxAmount",
          "type": "uint256"
        }
      ],
      "stateMutability": "view",
      "type": "function"
    },
    {
      "inputs": [
        {
          "internalType": "address",
          "name": "newOwner",
          "type": "address"
        }
      ],
      "name": "transferOwnership",
      "outputs": [],
      "stateMutability": "nonpayable",
      "type": "function"
    },
    {
      "inputs": [
        {
          "internalType": "address",
          "name": "token",
          "type": "address"
        },
        {
          "internalType": "address",
          "name": "to",
          "type": "address"
        },
        {
          "internalType": "uint256",
          "name": "amount",
          "type": "uint256"
        },
        {
          "internalType": "bytes32",
          "name": "eventId",
          "type": "bytes32"
        }
      ],
      "name": "unlockFromBurn",
      "outputs": [],
      "stateMutability": "nonpayable",
      "type": "function"
    },
    {
      "inputs": [],
      "name": "unpause",
      "outputs": [],
      "stateMutability": "nonpayable",
      "type": "function"
    },
    {
      "inputs": [
        {
          "internalType": "address",
          "name": "token",
          "type": "address"
        },
        {
          "internalType": "uint256",
          "name": "amount",
          "type": "uint256"
        }
      ],
      "name": "withdrawFees",
      "outputs": [],
      "stateMutability": "nonpayable",
      "type": "function"
    }
  ],
  "bytecode": "0x608060405234801561000f575f5ffd5b5060405161274638038061274683398181016040528101906100319190610332565b825f73ffffffffffffffffffffffffffffffffffffffff168173ffffffffffffffffffffffffffffffffffffffff16036100a2575f6040517f1e4fbdf70000000000000000000000000000000000000000000000000000000081526004016100999190610391565b60405180910390fd5b6100b18161021360201b60201c565b50600180819055505f73ffffffffffffffffffffffffffffffffffffffff168373ffffffffffffffffffffffffffffffffffffffff16148061011e57505f73ffffffffffffffffffffffffffffffffffffffff168273ffffffffffffffffffffffffffffffffffffffff16145b8061015457505f73ffffffffffffffffffffffffffffffffffffffff168173ffffffffffffffffffffffffffffffffffffffff16145b1561018b576040517f27dc792400000000000000000000000000000000000000000000000000000000815260040160405180910390fd5b8160075f6101000a81548173ffffffffffffffffffffffffffffffffffffffff021916908373ffffffffffffffffffffffffffffffffffffffff1602179055508060065f6101000a81548173ffffffffffffffffffffffffffffffffffffffff021916908373ffffffffffffffffffffffffffffffffffffffff1602179055505050506103aa565b5f5f5f9054906101000a900473ffffffffffffffffffffffffffffffffffffffff169050815f5f6101000a81548173ffffffffffffffffffffffffffffffffffffffff021916908373ffffffffffffffffffffffffffffffffffffffff1602179055508173ffffffffffffffffffffffffffffffffffffffff168173ffffffffffffffffffffffffffffffffffffffff167f8be0079c531659141344cd1fd0a4f28419497f9722a3daafe3b4186f6b6457e060405160405180910390a35050565b5f5ffd5b5f73ffffffffffffffffffffffffffffffffffffffff82169050919050565b5f610301826102d8565b9050919050565b610311816102f7565b811461031b575f5ffd5b50565b5f8151905061032c81610308565b92915050565b5f5f5f60608486031215610349576103486102d4565b5b5f6103568682870161031e565b93505060206103678682870161031e565b92505060406103788682870161031e565b9150509250925092565b61038b816102f7565b82525050565b5f6020820190506103a45f830184610382565b92915050565b61238f806103b75f395ff3fe608060405234801561000f575f5ffd5b5060043610610140575f3560e01c80638da5cb5b116100b6578063b3f006741161007a578063b3f0067414610317578063be3c400b14610335578063c58fba5a14610351578063efae444a1461036d578063efdcd97414610389578063f2fde38b146103a557610140565b80638da5cb5b14610287578063958c18ae146102a55780639630b34c146102c1578063ad3b1b47146102dd578063affed0e0146102f957610140565b80636548e9bc116101085780636548e9bc146101ed57806368ba1ef614610209578063715018a61461023957806372c27b62146102435780638406c0791461025f5780638456cb591461027d57610140565b80631b69dc5f146101445780631cead9a71461017757806324a9d853146101a75780633f4ba83a146101c55780635c975abb146101cf575b5f5ffd5b61015e60048036038101906101599190611db9565b6103c1565b60405161016e9493929190611e16565b60405180910390f35b610191600480360381019061018c9190611db9565b610405565b60405161019e9190611e59565b60405180910390f35b6101af61041a565b6040516101bc9190611e59565b60405180910390f35b6101cd610420565b005b6101d7610432565b6040516101e49190611e72565b60405180910390f35b61020760048036038101906102029190611db9565b610447565b005b610223600480360381019061021e9190611ebe565b610577565b6040516102309190611e72565b60405180910390f35b610241610594565b005b61025d60048036038101906102589190611f13565b6105a7565b005b610267610635565b6040516102749190611f4d565b60405180910390f35b61028561065a565b005b61028f61066c565b60405161029c9190611f4d565b60405180910390f35b6102bf60048036038101906102ba9190611f90565b610693565b005b6102db60048036038101906102d69190612007565b610810565b005b6102f760048036038101906102f2919061206b565b610b04565b005b610301610d55565b60405161030e9190611e59565b60405180910390f35b61031f610d5b565b60405161032c9190611f4d565b60405180910390f35b61034f600480360381019061034a91906120a9565b610d80565b005b61036b600480360381019061036691906120a9565b6110a5565b005b61038760048036038101906103829190612007565b6113c2565b005b6103a3600480360381019061039e9190611db9565b6116f4565b005b6103bf60048036038101906103ba9190611db9565b611824565b005b6002602052805f5260405f205f91509050805f015f9054906101000a900460ff1690805f0160019054906101000a900460ff16908060010154908060020154905084565b6005602052805f5260405f205f915090505481565b60085481565b6104286118a8565b61043061192f565b565b5f5f60149054906101000a900460ff16905090565b61044f6118a8565b5f73ffffffffffffffffffffffffffffffffffffffff168173ffffffffffffffffffffffffffffffffffffffff16036104b4576040517f27dc792400000000000000000000000000000000000000000000000000000000815260040160405180910390fd5b5f60065f9054906101000a900473ffffffffffffffffffffffffffffffffffffffff1690508160065f6101000a81548173ffffffffffffffffffffffffffffffffffffffff021916908373ffffffffffffffffffffffffffffffffffffffff1602179055508173ffffffffffffffffffffffffffffffffffffffff168173ffffffffffffffffffffffffffffffffffffffff167f605ca4e43489fb38b91aa63dd9147cd3847957694b080b9285ec898b34269f0c60405160405180910390a35050565b6004602052805f5260405f205f915054906101000a900460ff1681565b61059c6118a8565b6105a55f611990565b565b6105af6118a8565b6127108111156105eb576040517f050bde5d00000000000000000000000000000000000000000000000000000000815260040160405180910390fd5b5f6008549050816008819055507f5ec5620e288c4be955ccb6cfb3d55431a8fed5c4c96ffacc4b9506360695f64e818360405161062992919061210d565b60405180910390a15050565b60065f9054906101000a900473ffffffffffffffffffffffffffffffffffffffff1681565b6106626118a8565b61066a611a51565b565b5f5f5f9054906101000a900473ffffffffffffffffffffffffffffffffffffffff16905090565b61069b6118a8565b5f73ffffffffffffffffffffffffffffffffffffffff168573ffffffffffffffffffffffffffffffffffffffff1603610700576040517f27dc792400000000000000000000000000000000000000000000000000000000815260040160405180910390fd5b6040518060800160405280851515815260200184151581526020018381526020018281525060025f8773ffffffffffffffffffffffffffffffffffffffff1673ffffffffffffffffffffffffffffffffffffffff1681526020019081526020015f205f820151815f015f6101000a81548160ff0219169083151502179055506020820151815f0160016101000a81548160ff02191690831515021790555060408201518160010155606082015181600201559050508473ffffffffffffffffffffffffffffffffffffffff167f38135c542dd610e87c0bd4e3b182d6cb592482822af2ed07903e33552a57acc8858585856040516108019493929190611e16565b60405180910390a25050505050565b610818611ab3565b60065f9054906101000a900473ffffffffffffffffffffffffffffffffffffffff1673ffffffffffffffffffffffffffffffffffffffff163373ffffffffffffffffffffffffffffffffffffffff161461089e576040517f80436d2000000000000000000000000000000000000000000000000000000000815260040160405180910390fd5b6108a6611af4565b5f60025f8673ffffffffffffffffffffffffffffffffffffffff1673ffffffffffffffffffffffffffffffffffffffff1681526020019081526020015f206040518060800160405290815f82015f9054906101000a900460ff161515151581526020015f820160019054906101000a900460ff16151515158152602001600182015481526020016002820154815250509050805f0151610972576040517fa6bfd5fc00000000000000000000000000000000000000000000000000000000815260040160405180910390fd5b80602001516109ad576040517fa5f35e5300000000000000000000000000000000000000000000000000000000815260040160405180910390fd5b5f83036109e6576040517f4358881000000000000000000000000000000000000000000000000000000000815260040160405180910390fd5b60045f8381526020019081526020015f205f9054906101000a900460ff1615610a3b576040517fae79523400000000000000000000000000000000000000000000000000000000815260040160405180910390fd5b600160045f8481526020019081526020015f205f6101000a81548160ff021916908315150217905550610a8f84848773ffffffffffffffffffffffffffffffffffffffff16611b3a9092919063ffffffff16565b818473ffffffffffffffffffffffffffffffffffffffff168673ffffffffffffffffffffffffffffffffffffffff167f65539f13b9103713b367dd130a9f93c98cdb1fe4e4db39353cd85e03f7e6dd2e86604051610aed9190611e59565b60405180910390a450610afe611bb9565b50505050565b610b0c6118a8565b610b14611af4565b5f73ffffffffffffffffffffffffffffffffffffffff1660075f9054906101000a900473ffffffffffffffffffffffffffffffffffffffff1673ffffffffffffffffffffffffffffffffffffffff1603610b9a576040517f27dc792400000000000000000000000000000000000000000000000000000000815260040160405180910390fd5b5f60055f8473ffffffffffffffffffffffffffffffffffffffff1673ffffffffffffffffffffffffffffffffffffffff1681526020019081526020015f205490505f811480610be857505f82145b80610bf257508082115b15610c29576040517fcb47aa6200000000000000000000000000000000000000000000000000000000815260040160405180910390fd5b8181610c359190612161565b60055f8573ffffffffffffffffffffffffffffffffffffffff1673ffffffffffffffffffffffffffffffffffffffff1681526020019081526020015f2081905550610cc260075f9054906101000a900473ffffffffffffffffffffffffffffffffffffffff16838573ffffffffffffffffffffffffffffffffffffffff16611b3a9092919063ffffffff16565b60075f9054906101000a900473ffffffffffffffffffffffffffffffffffffffff1673ffffffffffffffffffffffffffffffffffffffff168373ffffffffffffffffffffffffffffffffffffffff167f5e110f8bc8a20b65dcc87f224bdf1cc039346e267118bae2739847f07321ffa884604051610d409190611e59565b60405180910390a350610d51611bb9565b5050565b60035481565b60075f9054906101000a900473ffffffffffffffffffffffffffffffffffffffff1681565b610d88611ab3565b610d90611af4565b5f60025f8673ffffffffffffffffffffffffffffffffffffffff1673ffffffffffffffffffffffffffffffffffffffff1681526020019081526020015f206040518060800160405290815f82015f9054906101000a900460ff161515151581526020015f820160019054906101000a900460ff16151515158152602001600182015481526020016002820154815250509050805f0151610e5c576040517fa6bfd5fc00000000000000000000000000000000000000000000000000000000815260040160405180910390fd5b8060200151610e97576040517fa5f35e5300000000000000000000000000000000000000000000000000000000815260040160405180910390fd5b5f8403610ed0576040517f4358881000000000000000000000000000000000000000000000000000000000815260040160405180910390fd5b5f8160400151118015610ee65750806040015184105b15610f1d576040517fde1b697100000000000000000000000000000000000000000000000000000000815260040160405180910390fd5b5f8160600151118015610f335750806060015184115b15610f6a576040517f5b2ff55400000000000000000000000000000000000000000000000000000000815260040160405180910390fd5b610f973330868873ffffffffffffffffffffffffffffffffffffffff16611bc2909392919063ffffffff16565b5f610fa185611c44565b90505f8186610fb09190612161565b90505f82111561100e578160055f8973ffffffffffffffffffffffffffffffffffffffff1673ffffffffffffffffffffffffffffffffffffffff1681526020019081526020015f205f8282546110069190612194565b925050819055505b5f60035f815461101d906121c7565b9190508190559050843373ffffffffffffffffffffffffffffffffffffffff168973ffffffffffffffffffffffffffffffffffffffff167f17c657e793e2d1d2fbd938bf5940bda9d4efa0897fbfa890f488f1b1928d41778a8688878d60405161108b95949392919061220e565b60405180910390a45050505061109f611bb9565b50505050565b6110ad611ab3565b6110b5611af4565b5f60025f8673ffffffffffffffffffffffffffffffffffffffff1673ffffffffffffffffffffffffffffffffffffffff1681526020019081526020015f206040518060800160405290815f82015f9054906101000a900460ff161515151581526020015f820160019054906101000a900460ff16151515158152602001600182015481526020016002820154815250509050805f0151611181576040517fa6bfd5fc00000000000000000000000000000000000000000000000000000000815260040160405180910390fd5b8060200151156111bd576040517f485784ac00000000000000000000000000000000000000000000000000000000815260040160405180910390fd5b5f84036111f6576040517f4358881000000000000000000000000000000000000000000000000000000000815260040160405180910390fd5b5f816040015111801561120c5750806040015184105b15611243576040517fde1b697100000000000000000000000000000000000000000000000000000000815260040160405180910390fd5b5f81606001511180156112595750806060015184115b15611290576040517f5b2ff55400000000000000000000000000000000000000000000000000000000815260040160405180910390fd5b6112bd3330868873ffffffffffffffffffffffffffffffffffffffff16611bc2909392919063ffffffff16565b8473ffffffffffffffffffffffffffffffffffffffff166342966c68856040518263ffffffff1660e01b81526004016112f69190611e59565b5f604051808303815f87803b15801561130d575f5ffd5b505af115801561131f573d5f5f3e3d5ffd5b505050505f60035f8154611332906121c7565b91905081905590505f5f90505f869050843373ffffffffffffffffffffffffffffffffffffffff168973ffffffffffffffffffffffffffffffffffffffff167f3daa4b1a359159354e6fc936b8c435e33c9f8ea08737a7a8b02074dcbd0baad38a8587898d6040516113a895949392919061220e565b60405180910390a4505050506113bc611bb9565b50505050565b6113ca611ab3565b60065f9054906101000a900473ffffffffffffffffffffffffffffffffffffffff1673ffffffffffffffffffffffffffffffffffffffff163373ffffffffffffffffffffffffffffffffffffffff1614611450576040517f80436d2000000000000000000000000000000000000000000000000000000000815260040160405180910390fd5b611458611af4565b5f60025f8673ffffffffffffffffffffffffffffffffffffffff1673ffffffffffffffffffffffffffffffffffffffff1681526020019081526020015f206040518060800160405290815f82015f9054906101000a900460ff161515151581526020015f820160019054906101000a900460ff16151515158152602001600182015481526020016002820154815250509050805f0151611524576040517fa6bfd5fc00000000000000000000000000000000000000000000000000000000815260040160405180910390fd5b806020015115611560576040517f485784ac00000000000000000000000000000000000000000000000000000000815260040160405180910390fd5b5f8303611599576040517f4358881000000000000000000000000000000000000000000000000000000000815260040160405180910390fd5b60045f8381526020019081526020015f205f9054906101000a900460ff16156115ee576040517fae79523400000000000000000000000000000000000000000000000000000000815260040160405180910390fd5b600160045f8481526020019081526020015f205f6101000a81548160ff0219169083151502179055508473ffffffffffffffffffffffffffffffffffffffff166340c10f1985856040518363ffffffff1660e01b815260040161165292919061225f565b5f604051808303815f87803b158015611669575f5ffd5b505af115801561167b573d5f5f3e3d5ffd5b50505050818473ffffffffffffffffffffffffffffffffffffffff168673ffffffffffffffffffffffffffffffffffffffff167f68bb9b2537134496fb73a4dcf530be505afc24bb46338e8d4431a74d7e333759866040516116dd9190611e59565b60405180910390a4506116ee611bb9565b50505050565b6116fc6118a8565b5f73ffffffffffffffffffffffffffffffffffffffff168173ffffffffffffffffffffffffffffffffffffffff1603611761576040517f27dc792400000000000000000000000000000000000000000000000000000000815260040160405180910390fd5b5f60075f9054906101000a900473ffffffffffffffffffffffffffffffffffffffff1690508160075f6101000a81548173ffffffffffffffffffffffffffffffffffffffff021916908373ffffffffffffffffffffffffffffffffffffffff1602179055508173ffffffffffffffffffffffffffffffffffffffff168173ffffffffffffffffffffffffffffffffffffffff167fa92ff4390fe6943f0b30e8fe715dde86f85ab79b2b2c640a10fc094cc4036cc860405160405180910390a35050565b61182c6118a8565b5f73ffffffffffffffffffffffffffffffffffffffff168173ffffffffffffffffffffffffffffffffffffffff160361189c575f6040517f1e4fbdf70000000000000000000000000000000000000000000000000000000081526004016118939190611f4d565b60405180910390fd5b6118a581611990565b50565b6118b0611c79565b73ffffffffffffffffffffffffffffffffffffffff166118ce61066c565b73ffffffffffffffffffffffffffffffffffffffff161461192d576118f1611c79565b6040517f118cdaa70000000000000000000000000000000000000000000000000000000081526004016119249190611f4d565b60405180910390fd5b565b611937611c80565b5f5f60146101000a81548160ff0219169083151502179055507f5db9ee0a495bf2e6ff9c91a7834c1ba4fdd244a5e8aa4e537bd38aeae4b073aa611979611c79565b6040516119869190611f4d565b60405180910390a1565b5f5f5f9054906101000a900473ffffffffffffffffffffffffffffffffffffffff169050815f5f6101000a81548173ffffffffffffffffffffffffffffffffffffffff021916908373ffffffffffffffffffffffffffffffffffffffff1602179055508173ffffffffffffffffffffffffffffffffffffffff168173ffffffffffffffffffffffffffffffffffffffff167f8be0079c531659141344cd1fd0a4f28419497f9722a3daafe3b4186f6b6457e060405160405180910390a35050565b611a59611ab3565b60015f60146101000a81548160ff0219169083151502179055507f62e78cea01bee320cd4e420270b5ea74000d11b0c9f74754ebdbfc544b05a258611a9c611c79565b604051611aa99190611f4d565b60405180910390a1565b611abb610432565b15611af2576040517fd93c066500000000000000000000000000000000000000000000000000000000815260040160405180910390fd5b565b600260015403611b30576040517f3ee5aeb500000000000000000000000000000000000000000000000000000000815260040160405180910390fd5b6002600181905550565b611bb4838473ffffffffffffffffffffffffffffffffffffffff1663a9059cbb8585604051602401611b6d92919061225f565b604051602081830303815290604052915060e01b6020820180517bffffffffffffffffffffffffffffffffffffffffffffffffffffffff8381831617835250505050611cc0565b505050565b60018081905550565b611c3e848573ffffffffffffffffffffffffffffffffffffffff166323b872dd868686604051602401611bf793929190612286565b604051602081830303815290604052915060e01b6020820180517bffffffffffffffffffffffffffffffffffffffffffffffffffffffff8381831617835250505050611cc0565b50505050565b5f5f60085403611c56575f9050611c74565b61271060085483611c6791906122bb565b611c719190612329565b90505b919050565b5f33905090565b611c88610432565b611cbe576040517f8dfc202b00000000000000000000000000000000000000000000000000000000815260040160405180910390fd5b565b5f5f60205f8451602086015f885af180611cdf576040513d5f823e3d81fd5b3d92505f519150505f8214611cf8576001811415611d13565b5f8473ffffffffffffffffffffffffffffffffffffffff163b145b15611d5557836040517f5274afe7000000000000000000000000000000000000000000000000000000008152600401611d4c9190611f4d565b60405180910390fd5b50505050565b5f5ffd5b5f73ffffffffffffffffffffffffffffffffffffffff82169050919050565b5f611d8882611d5f565b9050919050565b611d9881611d7e565b8114611da2575f5ffd5b50565b5f81359050611db381611d8f565b92915050565b5f60208284031215611dce57611dcd611d5b565b5b5f611ddb84828501611da5565b91505092915050565b5f8115159050919050565b611df881611de4565b82525050565b5f819050919050565b611e1081611dfe565b82525050565b5f608082019050611e295f830187611def565b611e366020830186611def565b611e436040830185611e07565b611e506060830184611e07565b95945050505050565b5f602082019050611e6c5f830184611e07565b92915050565b5f602082019050611e855f830184611def565b92915050565b5f819050919050565b611e9d81611e8b565b8114611ea7575f5ffd5b50565b5f81359050611eb881611e94565b92915050565b5f60208284031215611ed357611ed2611d5b565b5b5f611ee084828501611eaa565b91505092915050565b611ef281611dfe565b8114611efc575f5ffd5b50565b5f81359050611f0d81611ee9565b92915050565b5f60208284031215611f2857611f27611d5b565b5b5f611f3584828501611eff565b91505092915050565b611f4781611d7e565b82525050565b5f602082019050611f605f830184611f3e565b92915050565b611f6f81611de4565b8114611f79575f5ffd5b50565b5f81359050611f8a81611f66565b92915050565b5f5f5f5f5f60a08688031215611fa957611fa8611d5b565b5b5f611fb688828901611da5565b9550506020611fc788828901611f7c565b9450506040611fd888828901611f7c565b9350506060611fe988828901611eff565b9250506080611ffa88828901611eff565b9150509295509295909350565b5f5f5f5f6080858703121561201f5761201e611d5b565b5b5f61202c87828801611da5565b945050602061203d87828801611da5565b935050604061204e87828801611eff565b925050606061205f87828801611eaa565b91505092959194509250565b5f5f6040838503121561208157612080611d5b565b5b5f61208e85828601611da5565b925050602061209f85828601611eff565b9150509250929050565b5f5f5f5f608085870312156120c1576120c0611d5b565b5b5f6120ce87828801611da5565b94505060206120df87828801611eff565b93505060406120f087828801611eff565b925050606061210187828801611eaa565b91505092959194509250565b5f6040820190506121205f830185611e07565b61212d6020830184611e07565b9392505050565b7f4e487b71000000000000000000000000000000000000000000000000000000005f52601160045260245ffd5b5f61216b82611dfe565b915061217683611dfe565b925082820390508181111561218e5761218d612134565b5b92915050565b5f61219e82611dfe565b91506121a983611dfe565b92508282019050808211156121c1576121c0612134565b5b92915050565b5f6121d182611dfe565b91507fffffffffffffffffffffffffffffffffffffffffffffffffffffffffffffffff820361220357612202612134565b5b600182019050919050565b5f60a0820190506122215f830188611e07565b61222e6020830187611e07565b61223b6040830186611e07565b6122486060830185611e07565b6122556080830184611e07565b9695505050505050565b5f6040820190506122725f830185611f3e565b61227f6020830184611e07565b9392505050565b5f6060820190506122995f830186611f3e565b6122a66020830185611f3e565b6122b36040830184611e07565b949350505050565b5f6122c582611dfe565b91506122d083611dfe565b92508282026122de81611dfe565b915082820484148315176122f5576122f4612134565b5b5092915050565b7f4e487b71000000000000000000000000000000000000000000000000000000005f52601260045260245ffd5b5f61233382611dfe565b915061233e83611dfe565b92508261234e5761234d6122fc565b5b82820490509291505056fea264697066735822122051ba864edd8cdea6d32401173369b2117c1348ddf21d9982a7d5a14252bfcde564736f6c634300081c0033",
  "linkReferences": {},
  "deployedLinkReferences": {},
  "immutableReferences": {},
  "inputSourceName": "project/contracts/BridgeCore.sol",
  "buildInfoId": "solc-0_8_28-2ab80c92802f4f1c1d2668bc76d7cd63c494e520"
}