{
  "_format": "hh3-artifact-1",
  "contractName": "BridgeCore",
  "sourceName": "contracts/BridgeCore.sol",
  "abi": [
    {
      "inputs": [
        {
          "internalType": "address",
          "name": "_initialOwner",
          "type": "address"
        },
        {
          "internalType": "address",
          "name": "_initialFeeReceiver",
          "type": "address"
        },
        {
          "internalType": "address",
          "name": "_initialRelayer",
          "type": "address"
        }
      ],
      "stateMutability": "nonpayable",
      "type": "constructor"
    },
    {
      "inputs": [],
      "name": "BridgeCore__AlreadyProcessed",
      "type": "error"
    },
    {
      "inputs": [],
      "name": "BridgeCore__AmountTooLarge",
      "type": "error"
    },
    {
      "inputs": [],
      "name": "BridgeCore__AmountTooSmall",
      "type": "error"
    },
    {
      "inputs": [],
      "name": "BridgeCore__FeeTooHigh",
      "type": "error"
    },
    {
      "inputs": [],
      "name": "BridgeCore__InvalidAmount",
      "type": "error"
    },
    {
      "inputs": [],
      "name": "BridgeCore__NoFeesAvailable",
      "type": "error"
    },
    {
      "inputs": [],
      "name": "BridgeCore__NotRelayer",
      "type": "error"
    },
    {
      "inputs": [],
      "name": "BridgeCore__TokenNotCanonical",
      "type": "error"
    },
    {
      "inputs": [],
      "name": "BridgeCore__TokenNotWhitelisted",
      "type": "error"
    },
    {
      "inputs": [],
      "name": "BridgeCore__TokenNotWrapped",
      "type": "error"
    },
    {
      "inputs": [],
      "name": "BridgeCore__ZeroAddress",
      "type": "error"
    },
    {
      "inputs": [],
      "name": "EnforcedPause",
      "type": "error"
    },
    {
      "inputs": [],
      "name": "ExpectedPause",
      "type": "error"
    },
    {
      "inputs": [
        {
          "internalType": "address",
          "name": "owner",
          "type": "address"
        }
      ],
      "name": "OwnableInvalidOwner",
      "type": "error"
    },
    {
      "inputs": [
        {
          "internalType": "address",
          "name": "account",
          "type": "address"
        }
      ],
      "name": "OwnableUnauthorizedAccount",
      "type": "error"
    },
    {
      "inputs": [],
      "name": "ReentrancyGuardReentrantCall",
      "type": "error"
    },
    {
      "inputs": [
        {
          "internalType": "address",
          "name": "token",
          "type": "address"
        }
      ],
      "name": "SafeERC20FailedOperation",
      "type": "error"
    },
    {
      "anonymous": false,
      "inputs": [
        {
          "indexed": true,
          "internalType": "address",
          "name": "wrappedToken",
          "type": "address"
        },
        {
          "indexed": true,
          "internalType": "address",
          "name": "sender",
          "type": "address"
        },
        {
          "indexed": false,
          "internalType": "uint256",
          "name": "amount",
          "type": "uint256"
        },
        {
          "indexed": false,
          "internalType": "uint256",
          "name": "nonce",
          "type": "uint256"
        },
        {
          "indexed": false,
          "internalType": "uint256",
          "name": "destChainId",
          "type": "uint256"
        },
        {
          "indexed": true,
          "internalType": "address",
          "name": "destAddress",
          "type": "address"
        }
      ],
      "name": "BurnedWrapped",
      "type": "event"
    },
    {
      "anonymous": false,
      "inputs": [
        {
          "indexed": false,
          "internalType": "uint256",
          "name": "oldFeeBps",
          "type": "uint256"
        },
        {
          "indexed": false,
          "internalType": "uint256",
          "name": "newFeeBps",
          "type": "uint256"
        }
      ],
      "name": "FeeBpsUpdated",
      "type": "event"
    },
    {
      "anonymous": false,
      "inputs": [
        {
          "indexed": true,
          "internalType": "address",
          "name": "oldReceiver",
          "type": "address"
        },
        {
          "indexed": true,
          "internalType": "address",
          "name": "newReceiver",
          "type": "address"
        }
      ],
      "name": "FeeReceiverUpdated",
      "type": "event"
    },
    {
      "anonymous": false,
      "inputs": [
        {
          "indexed": true,
          "internalType": "address",
          "name": "token",
          "type": "address"
        },
        {
          "indexed": true,
          "internalType": "address",
          "name": "to",
          "type": "address"
        },
        {
          "indexed": false,
          "internalType": "uint256",
          "name": "amount",
          "type": "uint256"
        }
      ],
      "name": "FeesWithdrawn",
      "type": "event"
    },
    {
      "anonymous": false,
      "inputs": [
        {
          "indexed": true,
          "internalType": "address",
          "name": "token",
          "type": "address"
        },
        {
          "indexed": true,
          "internalType": "address",
          "name": "sender",
          "type": "address"
        },
        {
          "indexed": false,
          "internalType": "uint256",
          "name": "grossAmount",
          "type": "uint256"
        },
        {
          "indexed": false,
          "internalType": "uint256",
          "name": "netAmount",
          "type": "uint256"
        },
        {
          "indexed": false,
          "internalType": "uint256",
          "name": "feeAmount",
          "type": "uint256"
        },
        {
          "indexed": false,
          "internalType": "uint256",
          "name": "nonce",
          "type": "uint256"
        },
        {
          "indexed": false,
          "internalType": "uint256",
          "name": "destChainId",
          "type": "uint256"
        },
        {
          "indexed": true,
          "internalType": "address",
          "name": "destAddress",
          "type": "address"
        }
      ],
      "name": "LockedCanonical",
      "type": "event"
    },
    {
      "anonymous": false,
      "inputs": [
        {
          "indexed": true,
          "internalType": "address",
          "name": "wrappedToken",
          "type": "address"
        },
        {
          "indexed": true,
          "internalType": "address",
          "name": "recipient",
          "type": "address"
        },
        {
          "indexed": false,
          "internalType": "uint256",
          "name": "amount",
          "type": "uint256"
        },
        {
          "indexed": true,
          "internalType": "bytes32",
          "name": "eventId",
          "type": "bytes32"
        }
      ],
      "name": "MintedWrapped",
      "type": "event"
    },
    {
      "anonymous": false,
      "inputs": [
        {
          "indexed": true,
          "internalType": "address",
          "name": "previousOwner",
          "type": "address"
        },
        {
          "indexed": true,
          "internalType": "address",
          "name": "newOwner",
          "type": "address"
        }
      ],
      "name": "OwnershipTransferred",
      "type": "event"
    },
    {
      "anonymous": false,
      "inputs": [
        {
          "indexed": false,
          "internalType": "address",
          "name": "account",
          "type": "address"
        }
      ],
      "name": "Paused",
      "type": "event"
    },
    {
      "anonymous": false,
      "inputs": [
        {
          "indexed": true,
          "internalType": "address",
          "name": "oldRelayer",
          "type": "address"
        },
        {
          "indexed": true,
          "internalType": "address",
          "name": "newRelayer",
          "type": "address"
        }
      ],
      "name": "RelayerUpdated",
      "type": "event"
    },
    {
      "anonymous": false,
      "inputs": [
        {
          "indexed": true,
          "internalType": "address",
          "name": "token",
          "type": "address"
        },
        {
          "indexed": false,
          "internalType": "bool",
          "name": "isWhitelisted",
          "type": "bool"
        },
        {
          "indexed": false,
          "internalType": "bool",
          "name": "isCanonical",
          "type": "bool"
        },
        {
          "indexed": false,
          "internalType": "uint256",
          "name": "minAmount",
          "type": "uint256"
        },
        {
          "indexed": false,
          "internalType": "uint256",
          "name": "maxAmount",
          "type": "uint256"
        }
      ],
      "name": "TokenConfigUpdated",
      "type": "event"
    },
    {
      "anonymous": false,
      "inputs": [
        {
          "indexed": true,
          "internalType": "address",
          "name": "token",
          "type": "address"
        },
        {
          "indexed": true,
          "internalType": "address",
          "name": "recipient",
          "type": "address"
        },
        {
          "indexed": false,
          "internalType": "uint256",
          "name": "amount",
          "type": "uint256"
        },
        {
          "indexed": true,
          "internalType": "bytes32",
          "name": "eventId",
          "type": "bytes32"
        }
      ],
      "name": "UnlockedCanonical",
      "type": "event"
    },
    {
      "anonymous": false,
      "inputs": [
        {
          "indexed": false,
          "internalType": "address",
          "name": "account",
          "type": "address"
        }
      ],
      "name": "Unpaused",
      "type": "event"
    },
    {
      "inputs": [
        {
          "internalType": "address",
          "name": "wrappedToken",
          "type": "address"
        },
        {
          "internalType": "uint256",
          "name": "amount",
          "type": "uint256"
        },
        {
          "internalType": "uint256",
          "name": "destChainId",
          "type": "uint256"
        },
        {
          "internalType": "address",
          "name": "destAddress",
          "type": "address"
        }
      ],
      "name": "burnWrapped",
      "outputs": [],
      "stateMutability": "nonpayable",
      "type": "function"
    },
    {
      "inputs": [
        {
          "internalType": "address",
          "name": "",
          "type": "address"
        }
      ],
      "name": "collectedFees",
      "outputs": [
        {
          "internalType": "uint256",
          "name": "",
          "type": "uint256"
        }
      ],
      "stateMutability": "view",
      "type": "function"
    },
    {
      "inputs": [],
      "name": "feeBps",
      "outputs": [
        {
          "internalType": "uint256",
          "name": "",
          "type": "uint256"
        }
      ],
      "stateMutability": "view",
      "type": "function"
    },
    {
      "inputs": [],
      "name": "feeReceiver",
      "outputs": [
        {
          "internalType": "address",
          "name": "",
          "type": "address"
        }
      ],
      "stateMutability": "view",
      "type": "function"
    },
    {
      "inputs": [
        {
          "internalType": "address",
          "name": "token",
          "type": "address"
        },
        {
          "internalType": "uint256",
          "name": "amount",
          "type": "uint256"
        },
        {
          "internalType": "uint256",
          "name": "destChainId",
          "type": "uint256"
        },
        {
          "internalType": "address",
          "name": "destAddress",
          "type": "address"
        }
      ],
      "name": "lockCanonical",
      "outputs": [],
      "stateMutability": "nonpayable",
      "type": "function"
    },
    {
      "inputs": [
        {
          "internalType": "address",
          "name": "wrappedToken",
          "type": "address"
        },
        {
          "internalType": "address",
          "name": "to",
          "type": "address"
        },
        {
          "internalType": "uint256",
          "name": "amount",
          "type": "uint256"
        },
        {
          "internalType": "bytes32",
          "name": "eventId",
          "type": "bytes32"
        }
      ],
      "name": "mintFromLock",
      "outputs": [],
      "stateMutability": "nonpayable",
      "type": "function"
    },
    {
      "inputs": [
        {
          "internalType": "address",
          "name": "",
          "type": "address"
        }
      ],
      "name": "nonces",
      "outputs": [
        {
          "internalType": "uint256",
          "name": "",
          "type": "uint256"
        }
      ],
      "stateMutability": "view",
      "type": "function"
    },
    {
      "inputs": [],
      "name": "owner",
      "outputs": [
        {
          "internalType": "address",
          "name": "",
          "type": "address"
        }
      ],
      "stateMutability": "view",
      "type": "function"
    },
    {
      "inputs": [],
      "name": "pause",
      "outputs": [],
      "stateMutability": "nonpayable",
      "type": "function"
    },
    {
      "inputs": [],
      "name": "paused",
      "outputs": [
        {
          "internalType": "bool",
          "name": "",
          "type": "bool"
        }
      ],
      "stateMutability": "view",
      "type": "function"
    },
    {
      "inputs": [
        {
          "internalType": "bytes32",
          "name": "",
          "type": "bytes32"
        }
      ],
      "name": "processedEvents",
      "outputs": [
        {
          "internalType": "bool",
          "name": "",
          "type": "bool"
        }
      ],
      "stateMutability": "view",
      "type": "function"
    },
    {
      "inputs": [],
      "name": "relayer",
      "outputs": [
        {
          "internalType": "address",
          "name": "",
          "type": "address"
        }
      ],
      "stateMutability": "view",
      "type": "function"
    },
    {
      "inputs": [],
      "name": "renounceOwnership",
      "outputs": [],
      "stateMutability": "nonpayable",
      "type": "function"
    },
    {
      "inputs": [
        {
          "internalType": "uint256",
          "name": "_feeBps",
          "type": "uint256"
        }
      ],
      "name": "setFeeBps",
      "outputs": [],
      "stateMutability": "nonpayable",
      "type": "function"
    },
    {
      "inputs": [
        {
          "internalType": "address",
          "name": "_feeReceiver",
          "type": "address"
        }
      ],
      "name": "setFeeReceiver",
      "outputs": [],
      "stateMutability": "nonpayable",
      "type": "function"
    },
    {
      "inputs": [
        {
          "internalType": "address",
          "name": "_relayer",
          "type": "address"
        }
      ],
      "name": "setRelayer",
      "outputs": [],
      "stateMutability": "nonpayable",
      "type": "function"
    },
    {
      "inputs": [
        {
          "internalType": "address",
          "name": "token",
          "type": "address"
        },
        {
          "internalType": "bool",
          "name": "isWhitelisted",
          "type": "bool"
        },
        {
          "internalType": "bool",
          "name": "isCanonical",
          "type": "bool"
        },
        {
          "internalType": "uint256",
          "name": "minAmount",
          "type": "uint256"
        },
        {
          "internalType": "uint256",
          "name": "maxAmount",
          "type": "uint256"
        }
      ],
      "name": "setTokenConfig",
      "outputs": [],
      "stateMutability": "nonpayable",
      "type": "function"
    },
    {
      "inputs": [
        {
          "internalType": "address",
          "name": "",
          "type": "address"
        }
      ],
      "name": "tokenConfigs",
      "outputs": [
        {
          "internalType": "bool",
          "name": "isWhitelisted",
          "type": "bool"
        },
        {
          "internalType": "bool",
          "name": "isCanonical",
          "type": "bool"
        },
        {
          "internalType": "uint256",
          "name": "minAmount",
          "type": "uint256"
        },
        {
          "internalType": "uint256",
          "name": "maxAmount",
          "type": "uint256"
        }
      ],
      "stateMutability": "view",
      "type": "function"
    },
    {
      "inputs": [
        {
          "internalType": "address",
          "name": "newOwner",
          "type": "address"
        }
      ],
      "name": "transferOwnership",
      "outputs": [],
      "stateMutability": "nonpayable",
      "type": "function"
    },
    {
      "inputs": [
        {
          "internalType": "address",
          "name": "token",
          "type": "address"
        },
        {
          "internalType": "address",
          "name": "to",
          "type": "address"
        },
        {
          "internalType": "uint256",
          "name": "amount",
          "type": "uint256"
        },
        {
          "internalType": "bytes32",
          "name": "eventId",
          "type": "bytes32"
        }
      ],
      "name": "unlockFromBurn",
      "outputs": [],
      "stateMutability": "nonpayable",
      "type": "function"
    },
    {
      "inputs": [],
      "name": "unpause",
      "outputs": [],
      "stateMutability": "nonpayable",
      "type": "function"
    },
    {
      "inputs": [
        {
          "internalType": "address",
          "name": "token",
          "type": "address"
        },
        {
          "internalType": "uint256",
          "name": "amount",
          "type": "uint256"
        }
      ],
      "name": "withdrawFees",
      "outputs": [],
      "stateMutability": "nonpayable",
      "type": "function"
    }
  ],
  "bytecode": "0x608060405234801561000f575f5ffd5b5060405161283038038061283083398181016040528101906100319190610332565b825f73ffffffffffffffffffffffffffffffffffffffff168173ffffffffffffffffffffffffffffffffffffffff16036100a2575f6040517f1e4fbdf70000000000000000000000000000000000000000000000000000000081526004016100999190610391565b60405180910390fd5b6100b18161021360201b60201c565b50600180819055505f73ffffffffffffffffffffffffffffffffffffffff168373ffffffffffffffffffffffffffffffffffffffff16148061011e57505f73ffffffffffffffffffffffffffffffffffffffff168273ffffffffffffffffffffffffffffffffffffffff16145b8061015457505f73ffffffffffffffffffffffffffffffffffffffff168173ffffffffffffffffffffffffffffffffffffffff16145b1561018b576040517f27dc792400000000000000000000000000000000000000000000000000000000815260040160405180910390fd5b8160075f6101000a81548173ffffffffffffffffffffffffffffffffffffffff021916908373ffffffffffffffffffffffffffffffffffffffff1602179055508060065f6101000a81548173ffffffffffffffffffffffffffffffffffffffff021916908373ffffffffffffffffffffffffffffffffffffffff1602179055505050506103aa565b5f5f5f9054906101000a900473ffffffffffffffffffffffffffffffffffffffff169050815f5f6101000a81548173ffffffffffffffffffffffffffffffffffffffff021916908373ffffffffffffffffffffffffffffffffffffffff1602179055508173ffffffffffffffffffffffffffffffffffffffff168173ffffffffffffffffffffffffffffffffffffffff167f8be0079c531659141344cd1fd0a4f28419497f9722a3daafe3b4186f6b6457e060405160405180910390a35050565b5f5ffd5b5f73ffffffffffffffffffffffffffffffffffffffff82169050919050565b5f610301826102d8565b9050919050565b610311816102f7565b811461031b575f5ffd5b50565b5f8151905061032c81610308565b92915050565b5f5f5f60608486031215610349576103486102d4565b5b5f6103568682870161031e565b93505060206103678682870161031e565b92505060406103788682870161031e565b9150509250925092565b61038b816102f7565b82525050565b5f6020820190506103a45f830184610382565b92915050565b612479806103b75f395ff3fe608060405234801561000f575f5ffd5b5060043610610140575f3560e01c80638456cb59116100b6578063b3f006741161007a578063b3f0067414610329578063efae444a14610347578063efdcd97414610363578063f2fde38b1461037f578063f3d5abe01461039b578063f479e2b4146103b757610140565b80638456cb59146102ad5780638da5cb5b146102b7578063958c18ae146102d55780639630b34c146102f1578063ad3b1b471461030d57610140565b80636548e9bc116101085780636548e9bc146101ed57806368ba1ef614610209578063715018a61461023957806372c27b62146102435780637ecebe001461025f5780638406c0791461028f57610140565b80631b69dc5f146101445780631cead9a71461017757806324a9d853146101a75780633f4ba83a146101c55780635c975abb146101cf575b5f5ffd5b61015e60048036038101906101599190611e6e565b6103d3565b60405161016e9493929190611ecb565b60405180910390f35b610191600480360381019061018c9190611e6e565b610417565b60405161019e9190611f0e565b60405180910390f35b6101af61042c565b6040516101bc9190611f0e565b60405180910390f35b6101cd610432565b005b6101d7610444565b6040516101e49190611f27565b60405180910390f35b61020760048036038101906102029190611e6e565b610459565b005b610223600480360381019061021e9190611f73565b610589565b6040516102309190611f27565b60405180910390f35b6102416105a6565b005b61025d60048036038101906102589190611fc8565b6105b9565b005b61027960048036038101906102749190611e6e565b610647565b6040516102869190611f0e565b60405180910390f35b61029761065c565b6040516102a49190612002565b60405180910390f35b6102b5610681565b005b6102bf610693565b6040516102cc9190612002565b60405180910390f35b6102ef60048036038101906102ea9190612045565b6106ba565b005b61030b600480360381019061030691906120bc565b610837565b005b61032760048036038101906103229190612120565b610b2b565b005b610331610d7c565b60405161033e9190612002565b60405180910390f35b610361600480360381019061035c91906120bc565b610da1565b005b61037d60048036038101906103789190611e6e565b6110d3565b005b61039960048036038101906103949190611e6e565b611203565b005b6103b560048036038101906103b0919061215e565b611287565b005b6103d160048036038101906103cc919061215e565b6115fd565b005b6002602052805f5260405f205f91509050805f015f9054906101000a900460ff1690805f0160019054906101000a900460ff16908060010154908060020154905084565b6005602052805f5260405f205f915090505481565b60085481565b61043a61195d565b6104426119e4565b565b5f5f60149054906101000a900460ff16905090565b61046161195d565b5f73ffffffffffffffffffffffffffffffffffffffff168173ffffffffffffffffffffffffffffffffffffffff16036104c6576040517f27dc792400000000000000000000000000000000000000000000000000000000815260040160405180910390fd5b5f60065f9054906101000a900473ffffffffffffffffffffffffffffffffffffffff1690508160065f6101000a81548173ffffffffffffffffffffffffffffffffffffffff021916908373ffffffffffffffffffffffffffffffffffffffff1602179055508173ffffffffffffffffffffffffffffffffffffffff168173ffffffffffffffffffffffffffffffffffffffff167f605ca4e43489fb38b91aa63dd9147cd3847957694b080b9285ec898b34269f0c60405160405180910390a35050565b6004602052805f5260405f205f915054906101000a900460ff1681565b6105ae61195d565b6105b75f611a45565b565b6105c161195d565b6127108111156105fd576040517f050bde5d00000000000000000000000000000000000000000000000000000000815260040160405180910390fd5b5f6008549050816008819055507f5ec5620e288c4be955ccb6cfb3d55431a8fed5c4c96ffacc4b9506360695f64e818360405161063b9291906121c2565b60405180910390a15050565b6003602052805f5260405f205f915090505481565b60065f9054906101000a900473ffffffffffffffffffffffffffffffffffffffff1681565b61068961195d565b610691611b06565b565b5f5f5f9054906101000a900473ffffffffffffffffffffffffffffffffffffffff16905090565b6106c261195d565b5f73ffffffffffffffffffffffffffffffffffffffff168573ffffffffffffffffffffffffffffffffffffffff1603610727576040517f27dc792400000000000000000000000000000000000000000000000000000000815260040160405180910390fd5b6040518060800160405280851515815260200184151581526020018381526020018281525060025f8773ffffffffffffffffffffffffffffffffffffffff1673ffffffffffffffffffffffffffffffffffffffff1681526020019081526020015f205f820151815f015f6101000a81548160ff0219169083151502179055506020820151815f0160016101000a81548160ff02191690831515021790555060408201518160010155606082015181600201559050508473ffffffffffffffffffffffffffffffffffffffff167f38135c542dd610e87c0bd4e3b182d6cb592482822af2ed07903e33552a57acc8858585856040516108289493929190611ecb565b60405180910390a25050505050565b61083f611b68565b60065f9054906101000a900473ffffffffffffffffffffffffffffffffffffffff1673ffffffffffffffffffffffffffffffffffffffff163373ffffffffffffffffffffffffffffffffffffffff16146108c5576040517f80436d2000000000000000000000000000000000000000000000000000000000815260040160405180910390fd5b6108cd611ba9565b5f60025f8673ffffffffffffffffffffffffffffffffffffffff1673ffffffffffffffffffffffffffffffffffffffff1681526020019081526020015f206040518060800160405290815f82015f9054906101000a900460ff161515151581526020015f820160019054906101000a900460ff16151515158152602001600182015481526020016002820154815250509050805f0151610999576040517fa6bfd5fc00000000000000000000000000000000000000000000000000000000815260040160405180910390fd5b80602001516109d4576040517fa5f35e5300000000000000000000000000000000000000000000000000000000815260040160405180910390fd5b5f8303610a0d576040517f4358881000000000000000000000000000000000000000000000000000000000815260040160405180910390fd5b60045f8381526020019081526020015f205f9054906101000a900460ff1615610a62576040517fae79523400000000000000000000000000000000000000000000000000000000815260040160405180910390fd5b600160045f8481526020019081526020015f205f6101000a81548160ff021916908315150217905550610ab684848773ffffffffffffffffffffffffffffffffffffffff16611bef9092919063ffffffff16565b818473ffffffffffffffffffffffffffffffffffffffff168673ffffffffffffffffffffffffffffffffffffffff167f65539f13b9103713b367dd130a9f93c98cdb1fe4e4db39353cd85e03f7e6dd2e86604051610b149190611f0e565b60405180910390a450610b25611c6e565b50505050565b610b3361195d565b610b3b611ba9565b5f73ffffffffffffffffffffffffffffffffffffffff1660075f9054906101000a900473ffffffffffffffffffffffffffffffffffffffff1673ffffffffffffffffffffffffffffffffffffffff1603610bc1576040517f27dc792400000000000000000000000000000000000000000000000000000000815260040160405180910390fd5b5f60055f8473ffffffffffffffffffffffffffffffffffffffff1673ffffffffffffffffffffffffffffffffffffffff1681526020019081526020015f205490505f811480610c0f57505f82145b80610c1957508082115b15610c50576040517fcb47aa6200000000000000000000000000000000000000000000000000000000815260040160405180910390fd5b8181610c5c9190612216565b60055f8573ffffffffffffffffffffffffffffffffffffffff1673ffffffffffffffffffffffffffffffffffffffff1681526020019081526020015f2081905550610ce960075f9054906101000a900473ffffffffffffffffffffffffffffffffffffffff16838573ffffffffffffffffffffffffffffffffffffffff16611bef9092919063ffffffff16565b60075f9054906101000a900473ffffffffffffffffffffffffffffffffffffffff1673ffffffffffffffffffffffffffffffffffffffff168373ffffffffffffffffffffffffffffffffffffffff167f5e110f8bc8a20b65dcc87f224bdf1cc039346e267118bae2739847f07321ffa884604051610d679190611f0e565b60405180910390a350610d78611c6e565b5050565b60075f9054906101000a900473ffffffffffffffffffffffffffffffffffffffff1681565b610da9611b68565b60065f9054906101000a900473ffffffffffffffffffffffffffffffffffffffff1673ffffffffffffffffffffffffffffffffffffffff163373ffffffffffffffffffffffffffffffffffffffff1614610e2f576040517f80436d2000000000000000000000000000000000000000000000000000000000815260040160405180910390fd5b610e37611ba9565b5f60025f8673ffffffffffffffffffffffffffffffffffffffff1673ffffffffffffffffffffffffffffffffffffffff1681526020019081526020015f206040518060800160405290815f82015f9054906101000a900460ff161515151581526020015f820160019054906101000a900460ff16151515158152602001600182015481526020016002820154815250509050805f0151610f03576040517fa6bfd5fc00000000000000000000000000000000000000000000000000000000815260040160405180910390fd5b806020015115610f3f576040517f485784ac00000000000000000000000000000000000000000000000000000000815260040160405180910390fd5b5f8303610f78576040517f4358881000000000000000000000000000000000000000000000000000000000815260040160405180910390fd5b60045f8381526020019081526020015f205f9054906101000a900460ff1615610fcd576040517fae79523400000000000000000000000000000000000000000000000000000000815260040160405180910390fd5b600160045f8481526020019081526020015f205f6101000a81548160ff0219169083151502179055508473ffffffffffffffffffffffffffffffffffffffff166340c10f1985856040518363ffffffff1660e01b8152600401611031929190612249565b5f604051808303815f87803b158015611048575f5ffd5b505af115801561105a573d5f5f3e3d5ffd5b50505050818473ffffffffffffffffffffffffffffffffffffffff168673ffffffffffffffffffffffffffffffffffffffff167f68bb9b2537134496fb73a4dcf530be505afc24bb46338e8d4431a74d7e333759866040516110bc9190611f0e565b60405180910390a4506110cd611c6e565b50505050565b6110db61195d565b5f73ffffffffffffffffffffffffffffffffffffffff168173ffffffffffffffffffffffffffffffffffffffff1603611140576040517f27dc792400000000000000000000000000000000000000000000000000000000815260040160405180910390fd5b5f60075f9054906101000a900473ffffffffffffffffffffffffffffffffffffffff1690508160075f6101000a81548173ffffffffffffffffffffffffffffffffffffffff021916908373ffffffffffffffffffffffffffffffffffffffff1602179055508173ffffffffffffffffffffffffffffffffffffffff168173ffffffffffffffffffffffffffffffffffffffff167fa92ff4390fe6943f0b30e8fe715dde86f85ab79b2b2c640a10fc094cc4036cc860405160405180910390a35050565b61120b61195d565b5f73ffffffffffffffffffffffffffffffffffffffff168173ffffffffffffffffffffffffffffffffffffffff160361127b575f6040517f1e4fbdf70000000000000000000000000000000000000000000000000000000081526004016112729190612002565b60405180910390fd5b61128481611a45565b50565b61128f611b68565b611297611ba9565b5f60025f8673ffffffffffffffffffffffffffffffffffffffff1673ffffffffffffffffffffffffffffffffffffffff1681526020019081526020015f206040518060800160405290815f82015f9054906101000a900460ff161515151581526020015f820160019054906101000a900460ff16151515158152602001600182015481526020016002820154815250509050805f0151611363576040517fa6bfd5fc00000000000000000000000000000000000000000000000000000000815260040160405180910390fd5b806020015161139e576040517fa5f35e5300000000000000000000000000000000000000000000000000000000815260040160405180910390fd5b5f84036113d7576040517f4358881000000000000000000000000000000000000000000000000000000000815260040160405180910390fd5b5f81604001511180156113ed5750806040015184105b15611424576040517fde1b697100000000000000000000000000000000000000000000000000000000815260040160405180910390fd5b5f816060015111801561143a5750806060015184115b15611471576040517f5b2ff55400000000000000000000000000000000000000000000000000000000815260040160405180910390fd5b61149e3330868873ffffffffffffffffffffffffffffffffffffffff16611c77909392919063ffffffff16565b5f6114a885611cf9565b90505f81866114b79190612216565b90505f821115611515578160055f8973ffffffffffffffffffffffffffffffffffffffff1673ffffffffffffffffffffffffffffffffffffffff1681526020019081526020015f205f82825461150d9190612270565b925050819055505b5f60035f8973ffffffffffffffffffffffffffffffffffffffff1673ffffffffffffffffffffffffffffffffffffffff1681526020019081526020015f205f815461155f906122a3565b91905081905590508473ffffffffffffffffffffffffffffffffffffffff163373ffffffffffffffffffffffffffffffffffffffff168973ffffffffffffffffffffffffffffffffffffffff167f167411dec10492cb3416773dabe31f8d391b2cda4839e18ba3e0fcfad86eadb68a8688878d6040516115e39594939291906122ea565b60405180910390a4505050506115f7611c6e565b50505050565b611605611b68565b61160d611ba9565b5f60025f8673ffffffffffffffffffffffffffffffffffffffff1673ffffffffffffffffffffffffffffffffffffffff1681526020019081526020015f206040518060800160405290815f82015f9054906101000a900460ff161515151581526020015f820160019054906101000a900460ff16151515158152602001600182015481526020016002820154815250509050805f01516116d9576040517fa6bfd5fc00000000000000000000000000000000000000000000000000000000815260040160405180910390fd5b806020015115611715576040517f485784ac00000000000000000000000000000000000000000000000000000000815260040160405180910390fd5b5f840361174e576040517f4358881000000000000000000000000000000000000000000000000000000000815260040160405180910390fd5b5f81604001511180156117645750806040015184105b1561179b576040517fde1b697100000000000000000000000000000000000000000000000000000000815260040160405180910390fd5b5f81606001511180156117b15750806060015184115b156117e8576040517f5b2ff55400000000000000000000000000000000000000000000000000000000815260040160405180910390fd5b6118153330868873ffffffffffffffffffffffffffffffffffffffff16611c77909392919063ffffffff16565b8473ffffffffffffffffffffffffffffffffffffffff166342966c68856040518263ffffffff1660e01b815260040161184e9190611f0e565b5f604051808303815f87803b158015611865575f5ffd5b505af1158015611877573d5f5f3e3d5ffd5b505050505f60035f8773ffffffffffffffffffffffffffffffffffffffff1673ffffffffffffffffffffffffffffffffffffffff1681526020019081526020015f205f81546118c5906122a3565b91905081905590508273ffffffffffffffffffffffffffffffffffffffff163373ffffffffffffffffffffffffffffffffffffffff168773ffffffffffffffffffffffffffffffffffffffff167f7bda60fe4ac8b060bd2fc718593d5c2690ef67e79faef2eac5457d48d5ed8aef8885896040516119459392919061233b565b60405180910390a45050611957611c6e565b50505050565b611965611d2e565b73ffffffffffffffffffffffffffffffffffffffff16611983610693565b73ffffffffffffffffffffffffffffffffffffffff16146119e2576119a6611d2e565b6040517f118cdaa70000000000000000000000000000000000000000000000000000000081526004016119d99190612002565b60405180910390fd5b565b6119ec611d35565b5f5f60146101000a81548160ff0219169083151502179055507f5db9ee0a495bf2e6ff9c91a7834c1ba4fdd244a5e8aa4e537bd38aeae4b073aa611a2e611d2e565b604051611a3b9190612002565b60405180910390a1565b5f5f5f9054906101000a900473ffffffffffffffffffffffffffffffffffffffff169050815f5f6101000a81548173ffffffffffffffffffffffffffffffffffffffff021916908373ffffffffffffffffffffffffffffffffffffffff1602179055508173ffffffffffffffffffffffffffffffffffffffff168173ffffffffffffffffffffffffffffffffffffffff167f8be0079c531659141344cd1fd0a4f28419497f9722a3daafe3b4186f6b6457e060405160405180910390a35050565b611b0e611b68565b60015f60146101000a81548160ff0219169083151502179055507f62e78cea01bee320cd4e420270b5ea74000d11b0c9f74754ebdbfc544b05a258611b51611d2e565b604051611b5e9190612002565b60405180910390a1565b611b70610444565b15611ba7576040517fd93c066500000000000000000000000000000000000000000000000000000000815260040160405180910390fd5b565b600260015403611be5576040517f3ee5aeb500000000000000000000000000000000000000000000000000000000815260040160405180910390fd5b6002600181905550565b611c69838473ffffffffffffffffffffffffffffffffffffffff1663a9059cbb8585604051602401611c22929190612249565b604051602081830303815290604052915060e01b6020820180517bffffffffffffffffffffffffffffffffffffffffffffffffffffffff8381831617835250505050611d75565b505050565b60018081905550565b611cf3848573ffffffffffffffffffffffffffffffffffffffff166323b872dd868686604051602401611cac93929190612370565b604051602081830303815290604052915060e01b6020820180517bffffffffffffffffffffffffffffffffffffffffffffffffffffffff8381831617835250505050611d75565b50505050565b5f5f60085403611d0b575f9050611d29565b61271060085483611d1c91906123a5565b611d269190612413565b90505b919050565b5f33905090565b611d3d610444565b611d73576040517f8dfc202b00000000000000000000000000000000000000000000000000000000815260040160405180910390fd5b565b5f5f60205f8451602086015f885af180611d94576040513d5f823e3d81fd5b3d92505f519150505f8214611dad576001811415611dc8565b5f8473ffffffffffffffffffffffffffffffffffffffff163b145b15611e0a57836040517f5274afe7000000000000000000000000000000000000000000000000000000008152600401611e019190612002565b60405180910390fd5b50505050565b5f5ffd5b5f73ffffffffffffffffffffffffffffffffffffffff82169050919050565b5f611e3d82611e14565b9050919050565b611e4d81611e33565b8114611e57575f5ffd5b50565b5f81359050611e6881611e44565b92915050565b5f60208284031215611e8357611e82611e10565b5b5f611e9084828501611e5a565b91505092915050565b5f8115159050919050565b611ead81611e99565b82525050565b5f819050919050565b611ec581611eb3565b82525050565b5f608082019050611ede5f830187611ea4565b611eeb6020830186611ea4565b611ef86040830185611ebc565b611f056060830184611ebc565b95945050505050565b5f602082019050611f215f830184611ebc565b92915050565b5f602082019050611f3a5f830184611ea4565b92915050565b5f819050919050565b611f5281611f40565b8114611f5c575f5ffd5b50565b5f81359050611f6d81611f49565b92915050565b5f60208284031215611f8857611f87611e10565b5b5f611f9584828501611f5f565b91505092915050565b611fa781611eb3565b8114611fb1575f5ffd5b50565b5f81359050611fc281611f9e565b92915050565b5f60208284031215611fdd57611fdc611e10565b5b5f611fea84828501611fb4565b91505092915050565b611ffc81611e33565b82525050565b5f6020820190506120155f830184611ff3565b92915050565b61202481611e99565b811461202e575f5ffd5b50565b5f8135905061203f8161201b565b92915050565b5f5f5f5f5f60a0868803121561205e5761205d611e10565b5b5f61206b88828901611e5a565b955050602061207c88828901612031565b945050604061208d88828901612031565b935050606061209e88828901611fb4565b92505060806120af88828901611fb4565b9150509295509295909350565b5f5f5f5f608085870312156120d4576120d3611e10565b5b5f6120e187828801611e5a565b94505060206120f287828801611e5a565b935050604061210387828801611fb4565b925050606061211487828801611f5f565b91505092959194509250565b5f5f6040838503121561213657612135611e10565b5b5f61214385828601611e5a565b925050602061215485828601611fb4565b9150509250929050565b5f5f5f5f6080858703121561217657612175611e10565b5b5f61218387828801611e5a565b945050602061219487828801611fb4565b93505060406121a587828801611fb4565b92505060606121b687828801611e5a565b91505092959194509250565b5f6040820190506121d55f830185611ebc565b6121e26020830184611ebc565b9392505050565b7f4e487b71000000000000000000000000000000000000000000000000000000005f52601160045260245ffd5b5f61222082611eb3565b915061222b83611eb3565b9250828203905081811115612243576122426121e9565b5b92915050565b5f60408201905061225c5f830185611ff3565b6122696020830184611ebc565b9392505050565b5f61227a82611eb3565b915061228583611eb3565b925082820190508082111561229d5761229c6121e9565b5b92915050565b5f6122ad82611eb3565b91507fffffffffffffffffffffffffffffffffffffffffffffffffffffffffffffffff82036122df576122de6121e9565b5b600182019050919050565b5f60a0820190506122fd5f830188611ebc565b61230a6020830187611ebc565b6123176040830186611ebc565b6123246060830185611ebc565b6123316080830184611ebc565b9695505050505050565b5f60608201905061234e5f830186611ebc565b61235b6020830185611ebc565b6123686040830184611ebc565b949350505050565b5f6060820190506123835f830186611ff3565b6123906020830185611ff3565b61239d6040830184611ebc565b949350505050565b5f6123af82611eb3565b91506123ba83611eb3565b92508282026123c881611eb3565b915082820484148315176123df576123de6121e9565b5b5092915050565b7f4e487b71000000000000000000000000000000000000000000000000000000005f52601260045260245ffd5b5f61241d82611eb3565b915061242883611eb3565b925082612438576124376123e6565b5b82820490509291505056fea26469706673582212207d58af4c20523c636221be911edefffa500bf59f7ee973a5b9b48dc0cce0576e64736f6c634300081c0033",
  "linkReferences": {},
  "deployedLinkReferences": {},
  "immutableReferences": {},
  "inputSourceName": "project/contracts/BridgeCore.sol",
  "buildInfoId": "solc-0_8_28-6e0013886a8c859dac4f5f0529cba81d17319fd7"
}