{
  "_format": "hh3-artifact-1",
  "contractName": "BridgeCore",
  "sourceName": "contracts/BridgeCore.sol",
  "abi": [
    {
      "inputs": [
        {
          "internalType": "address",
          "name": "_initialOwner",
          "type": "address"
        },
        {
          "internalType": "address",
          "name": "_initialFeeReceiver",
          "type": "address"
        },
        {
          "internalType": "address",
          "name": "_initialRelayer",
          "type": "address"
        }
      ],
      "stateMutability": "nonpayable",
      "type": "constructor"
    },
    {
      "inputs": [],
      "name": "BridgeCore__AlreadyProcessed",
      "type": "error"
    },
    {
      "inputs": [],
      "name": "BridgeCore__AmountTooLarge",
      "type": "error"
    },
    {
      "inputs": [],
      "name": "BridgeCore__AmountTooSmall",
      "type": "error"
    },
    {
      "inputs": [],
      "name": "BridgeCore__FeeTooHigh",
      "type": "error"
    },
    {
      "inputs": [],
      "name": "BridgeCore__InvalidAmount",
      "type": "error"
    },
    {
      "inputs": [],
      "name": "BridgeCore__NoFeesAvailable",
      "type": "error"
    },
    {
      "inputs": [],
      "name": "BridgeCore__NotRelayer",
      "type": "error"
    },
    {
      "inputs": [],
      "name": "BridgeCore__TokenNotCanonical",
      "type": "error"
    },
    {
      "inputs": [],
      "name": "BridgeCore__TokenNotWhitelisted",
      "type": "error"
    },
    {
      "inputs": [],
      "name": "BridgeCore__TokenNotWrapped",
      "type": "error"
    },
    {
      "inputs": [],
      "name": "BridgeCore__ZeroAddress",
      "type": "error"
    },
    {
      "inputs": [],
      "name": "EnforcedPause",
      "type": "error"
    },
    {
      "inputs": [],
      "name": "ExpectedPause",
      "type": "error"
    },
    {
      "inputs": [
        {
          "internalType": "address",
          "name": "owner",
          "type": "address"
        }
      ],
      "name": "OwnableInvalidOwner",
      "type": "error"
    },
    {
      "inputs": [
        {
          "internalType": "address",
          "name": "account",
          "type": "address"
        }
      ],
      "name": "OwnableUnauthorizedAccount",
      "type": "error"
    },
    {
      "inputs": [],
      "name": "ReentrancyGuardReentrantCall",
      "type": "error"
    },
    {
      "inputs": [
        {
          "internalType": "address",
          "name": "token",
          "type": "address"
        }
      ],
      "name": "SafeERC20FailedOperation",
      "type": "error"
    },
    {
      "anonymous": false,
      "inputs": [
        {
          "indexed": true,
          "internalType": "address",
          "name": "wrappedToken",
          "type": "address"
        },
        {
          "indexed": true,
          "internalType": "address",
          "name": "sender",
          "type": "address"
        },
        {
          "indexed": false,
          "internalType": "uint256",
          "name": "amount",
          "type": "uint256"
        },
        {
          "indexed": false,
          "internalType": "uint256",
          "name": "nonce",
          "type": "uint256"
        },
        {
          "indexed": false,
          "internalType": "uint256",
          "name": "destChainId",
          "type": "uint256"
        },
        {
          "indexed": true,
          "internalType": "address",
          "name": "destAddress",
          "type": "address"
        }
      ],
      "name": "BurnedWrapped",
      "type": "event"
    },
    {
      "anonymous": false,
      "inputs": [
        {
          "indexed": false,
          "internalType": "uint256",
          "name": "oldFeeBps",
          "type": "uint256"
        },
        {
          "indexed": false,
          "internalType": "uint256",
          "name": "newFeeBps",
          "type": "uint256"
        }
      ],
      "name": "FeeBpsUpdated",
      "type": "event"
    },
    {
      "anonymous": false,
      "inputs": [
        {
          "indexed": true,
          "internalType": "address",
          "name": "oldReceiver",
          "type": "address"
        },
        {
          "indexed": true,
          "internalType": "address",
          "name": "newReceiver",
          "type": "address"
        }
      ],
      "name": "FeeReceiverUpdated",
      "type": "event"
    },
    {
      "anonymous": false,
      "inputs": [
        {
          "indexed": true,
          "internalType": "address",
          "name": "token",
          "type": "address"
        },
        {
          "indexed": true,
          "internalType": "address",
          "name": "to",
          "type": "address"
        },
        {
          "indexed": false,
          "internalType": "uint256",
          "name": "amount",
          "type": "uint256"
        }
      ],
      "name": "FeesWithdrawn",
      "type": "event"
    },
    {
      "anonymous": false,
      "inputs": [
        {
          "indexed": true,
          "internalType": "address",
          "name": "token",
          "type": "address"
        },
        {
          "indexed": true,
          "internalType": "address",
          "name": "sender",
          "type": "address"
        },
        {
          "indexed": false,
          "internalType": "uint256",
          "name": "grossAmount",
          "type": "uint256"
        },
        {
          "indexed": false,
          "internalType": "uint256",
          "name": "netAmount",
          "type": "uint256"
        },
        {
          "indexed": false,
          "internalType": "uint256",
          "name": "feeAmount",
          "type": "uint256"
        },
        {
          "indexed": false,
          "internalType": "uint256",
          "name": "nonce",
          "type": "uint256"
        },
        {
          "indexed": false,
          "internalType": "uint256",
          "name": "destChainId",
          "type": "uint256"
        },
        {
          "indexed": true,
          "internalType": "address",
          "name": "destAddress",
          "type": "address"
        }
      ],
      "name": "LockedCanonical",
      "type": "event"
    },
    {
      "anonymous": false,
      "inputs": [
        {
          "indexed": true,
          "internalType": "address",
          "name": "wrappedToken",
          "type": "address"
        },
        {
          "indexed": true,
          "internalType": "address",
          "name": "recipient",
          "type": "address"
        },
        {
          "indexed": false,
          "internalType": "uint256",
          "name": "amount",
          "type": "uint256"
        },
        {
          "indexed": true,
          "internalType": "bytes32",
          "name": "eventId",
          "type": "bytes32"
        }
      ],
      "name": "MintedWrapped",
      "type": "event"
    },
    {
      "anonymous": false,
      "inputs": [
        {
          "indexed": true,
          "internalType": "address",
          "name": "previousOwner",
          "type": "address"
        },
        {
          "indexed": true,
          "internalType": "address",
          "name": "newOwner",
          "type": "address"
        }
      ],
      "name": "OwnershipTransferred",
      "type": "event"
    },
    {
      "anonymous": false,
      "inputs": [
        {
          "indexed": false,
          "internalType": "address",
          "name": "account",
          "type": "address"
        }
      ],
      "name": "Paused",
      "type": "event"
    },
    {
      "anonymous": false,
      "inputs": [
        {
          "indexed": true,
          "internalType": "address",
          "name": "oldRelayer",
          "type": "address"
        },
        {
          "indexed": true,
          "internalType": "address",
          "name": "newRelayer",
          "type": "address"
        }
      ],
      "name": "RelayerUpdated",
      "type": "event"
    },
    {
      "anonymous": false,
      "inputs": [
        {
          "indexed": true,
          "internalType": "address",
          "name": "token",
          "type": "address"
        },
        {
          "indexed": false,
          "internalType": "bool",
          "name": "isWhitelisted",
          "type": "bool"
        },
        {
          "indexed": false,
          "internalType": "bool",
          "name": "isCanonical",
          "type": "bool"
        },
        {
          "indexed": false,
          "internalType": "uint256",
          "name": "minAmount",
          "type": "uint256"
        },
        {
          "indexed": false,
          "internalType": "uint256",
          "name": "maxAmount",
          "type": "uint256"
        }
      ],
      "name": "TokenConfigUpdated",
      "type": "event"
    },
    {
      "anonymous": false,
      "inputs": [
        {
          "indexed": true,
          "internalType": "address",
          "name": "token",
          "type": "address"
        },
        {
          "indexed": true,
          "internalType": "address",
          "name": "recipient",
          "type": "address"
        },
        {
          "indexed": false,
          "internalType": "uint256",
          "name": "amount",
          "type": "uint256"
        },
        {
          "indexed": true,
          "internalType": "bytes32",
          "name": "eventId",
          "type": "bytes32"
        }
      ],
      "name": "UnlockedCanonical",
      "type": "event"
    },
    {
      "anonymous": false,
      "inputs": [
        {
          "indexed": false,
          "internalType": "address",
          "name": "account",
          "type": "address"
        }
      ],
      "name": "Unpaused",
      "type": "event"
    },
    {
      "inputs": [
        {
          "internalType": "address",
          "name": "wrappedToken",
          "type": "address"
        },
        {
          "internalType": "uint256",
          "name": "amount",
          "type": "uint256"
        },
        {
          "internalType": "uint256",
          "name": "destChainId",
          "type": "uint256"
        },
        {
          "internalType": "address",
          "name": "destAddress",
          "type": "address"
        }
      ],
      "name": "burnWrapped",
      "outputs": [],
      "stateMutability": "nonpayable",
      "type": "function"
    },
    {
      "inputs": [
        {
          "internalType": "address",
          "name": "",
          "type": "address"
        }
      ],
      "name": "collectedFees",
      "outputs": [
        {
          "internalType": "uint256",
          "name": "",
          "type": "uint256"
        }
      ],
      "stateMutability": "view",
      "type": "function"
    },
    {
      "inputs": [],
      "name": "feeBps",
      "outputs": [
        {
          "internalType": "uint256",
          "name": "",
          "type": "uint256"
        }
      ],
      "stateMutability": "view",
      "type": "function"
    },
    {
      "inputs": [],
      "name": "feeReceiver",
      "outputs": [
        {
          "internalType": "address",
          "name": "",
          "type": "address"
        }
      ],
      "stateMutability": "view",
      "type": "function"
    },
    {
      "inputs": [
        {
          "internalType": "address",
          "name": "token",
          "type": "address"
        },
        {
          "internalType": "uint256",
          "name": "amount",
          "type": "uint256"
        },
        {
          "internalType": "uint256",
          "name": "destChainId",
          "type": "uint256"
        },
        {
          "internalType": "address",
          "name": "destAddress",
          "type": "address"
        }
      ],
      "name": "lockCanonical",
      "outputs": [],
      "stateMutability": "nonpayable",
      "type": "function"
    },
    {
      "inputs": [
        {
          "internalType": "address",
          "name": "wrappedToken",
          "type": "address"
        },
        {
          "internalType": "address",
          "name": "to",
          "type": "address"
        },
        {
          "internalType": "uint256",
          "name": "amount",
          "type": "uint256"
        },
        {
          "internalType": "bytes32",
          "name": "eventId",
          "type": "bytes32"
        }
      ],
      "name": "mintFromLock",
      "outputs": [],
      "stateMutability": "nonpayable",
      "type": "function"
    },
    {
      "inputs": [
        {
          "internalType": "address",
          "name": "",
          "type": "address"
        }
      ],
      "name": "nonces",
      "outputs": [
        {
          "internalType": "uint256",
          "name": "",
          "type": "uint256"
        }
      ],
      "stateMutability": "view",
      "type": "function"
    },
    {
      "inputs": [],
      "name": "owner",
      "outputs": [
        {
          "internalType": "address",
          "name": "",
          "type": "address"
        }
      ],
      "stateMutability": "view",
      "type": "function"
    },
    {
      "inputs": [],
      "name": "pause",
      "outputs": [],
      "stateMutability": "nonpayable",
      "type": "function"
    },
    {
      "inputs": [],
      "name": "paused",
      "outputs": [
        {
          "internalType": "bool",
          "name": "",
          "type": "bool"
        }
      ],
      "stateMutability": "view",
      "type": "function"
    },
    {
      "inputs": [
        {
          "internalType": "bytes32",
          "name": "",
          "type": "bytes32"
        }
      ],
      "name": "processedEvents",
      "outputs": [
        {
          "internalType": "bool",
          "name": "",
          "type": "bool"
        }
      ],
      "stateMutability": "view",
      "type": "function"
    },
    {
      "inputs": [],
      "name": "relayer",
      "outputs": [
        {
          "internalType": "address",
          "name": "",
          "type": "address"
        }
      ],
      "stateMutability": "view",
      "type": "function"
    },
    {
      "inputs": [],
      "name": "renounceOwnership",
      "outputs": [],
      "stateMutability": "nonpayable",
      "type": "function"
    },
    {
      "inputs": [
        {
          "internalType": "uint256",
          "name": "_feeBps",
          "type": "uint256"
        }
      ],
      "name": "setFeeBps",
      "outputs": [],
      "stateMutability": "nonpayable",
      "type": "function"
    },
    {
      "inputs": [
        {
          "internalType": "address",
          "name": "_feeReceiver",
          "type": "address"
        }
      ],
      "name": "setFeeReceiver",
      "outputs": [],
      "stateMutability": "nonpayable",
      "type": "function"
    },
    {
      "inputs": [
        {
          "internalType": "address",
          "name": "_relayer",
          "type": "address"
        }
      ],
      "name": "setRelayer",
      "outputs": [],
      "stateMutability": "nonpayable",
      "type": "function"
    },
    {
      "inputs": [
        {
          "internalType": "address",
          "name": "token",
          "type": "address"
        },
        {
          "internalType": "bool",
          "name": "isWhitelisted",
          "type": "bool"
        },
        {
          "internalType": "bool",
          "name": "isCanonical",
          "type": "bool"
        },
        {
          "internalType": "uint256",
          "name": "minAmount",
          "type": "uint256"
        },
        {
          "internalType": "uint256",
          "name": "maxAmount",
          "type": "uint256"
        }
      ],
      "name": "setTokenConfig",
      "outputs": [],
      "stateMutability": "nonpayable",
      "type": "function"
    },
    {
      "inputs": [
        {
          "internalType": "address",
          "name": "",
          "type": "address"
        }
      ],
      "name": "tokenConfigs",
      "outputs": [
        {
          "internalType": "bool",
          "name": "isWhitelisted",
          "type": "bool"
        },
        {
          "internalType": "bool",
          "name": "isCanonical",
          "type": "bool"
        },
        {
          "internalType": "uint256",
          "name": "minAmount",
          "type": "uint256"
        },
        {
          "internalType": "uint256",
          "name": "maxAmount",
          "type": "uint256"
        }
      ],
      "stateMutability": "view",
      "type": "function"
    },
    {
      "inputs": [
        {
          "internalType": "address",
          "name": "newOwner",
          "type": "address"
        }
      ],
      "name": "transferOwnership",
      "outputs": [],
      "stateMutability": "nonpayable",
      "type": "function"
    },
    {
      "inputs": [
        {
          "internalType": "address",
          "name": "token",
          "type": "address"
        },
        {
          "internalType": "address",
          "name": "to",
          "type": "address"
        },
        {
          "internalType": "uint256",
          "name": "amount",
          "type": "uint256"
        },
        {
          "internalType": "bytes32",
          "name": "eventId",
          "type": "bytes32"
        }
      ],
      "name": "unlockFromBurn",
      "outputs": [],
      "stateMutability": "nonpayable",
      "type": "function"
    },
    {
      "inputs": [],
      "name": "unpause",
      "outputs": [],
      "stateMutability": "nonpayable",
      "type": "function"
    },
    {
      "inputs": [
        {
          "internalType": "address",
          "name": "token",
          "type": "address"
        },
        {
          "internalType": "uint256",
          "name": "amount",
          "type": "uint256"
        }
      ],
      "name": "withdrawFees",
      "outputs": [],
      "stateMutability": "nonpayable",
      "type": "function"
    }
  ],
  "bytecode": "0x608060405234801561000f575f5ffd5b5060405161159a38038061159a83398101604081905261002e91610153565b826001600160a01b03811661005c57604051631e4fbdf760e01b81525f600482015260240160405180910390fd5b610065816100e9565b50600180556001600160a01b038316158061008757506001600160a01b038216155b8061009957506001600160a01b038116155b156100b7576040516309f71e4960e21b815260040160405180910390fd5b600780546001600160a01b039384166001600160a01b0319918216179091556006805492909316911617905550610193565b5f80546001600160a01b038381166001600160a01b0319831681178455604051919092169283917f8be0079c531659141344cd1fd0a4f28419497f9722a3daafe3b4186f6b6457e09190a35050565b80516001600160a01b038116811461014e575f5ffd5b919050565b5f5f5f60608486031215610165575f5ffd5b61016e84610138565b925061017c60208501610138565b915061018a60408501610138565b90509250925092565b6113fa806101a05f395ff3fe608060405234801561000f575f5ffd5b506004361061013d575f3560e01c80638456cb59116100b4578063b3f0067411610079578063b3f00674146102eb578063efae444a146102fe578063efdcd97414610311578063f2fde38b14610324578063f3d5abe014610337578063f479e2b41461034a575f5ffd5b80638456cb591461029a5780638da5cb5b146102a2578063958c18ae146102b25780639630b34c146102c5578063ad3b1b47146102d8575f5ffd5b80636548e9bc116101055780636548e9bc1461020057806368ba1ef614610213578063715018a61461023557806372c27b621461023d5780637ecebe00146102505780638406c0791461026f575f5ffd5b80631b69dc5f146101415780631cead9a7146101a357806324a9d853146101d05780633f4ba83a146101d95780635c975abb146101e3575b5f5ffd5b61017c61014f3660046111fb565b600260208190525f918252604090912080546001820154919092015460ff80841693610100900416919084565b60408051941515855292151560208501529183015260608201526080015b60405180910390f35b6101c26101b13660046111fb565b60056020525f908152604090205481565b60405190815260200161019a565b6101c260085481565b6101e161035d565b005b5f54600160a01b900460ff165b604051901515815260200161019a565b6101e161020e3660046111fb565b61036f565b6101f061022136600461121b565b60046020525f908152604090205460ff1681565b6101e16103ef565b6101e161024b36600461121b565b610400565b6101c261025e3660046111fb565b60036020525f908152604090205481565b600654610282906001600160a01b031681565b6040516001600160a01b03909116815260200161019a565b6101e1610470565b5f546001600160a01b0316610282565b6101e16102c0366004611241565b610480565b6101e16102d3366004611292565b610572565b6101e16102e63660046112d1565b610719565b600754610282906001600160a01b031681565b6101e161030c366004611292565b610825565b6101e161031f3660046111fb565b610a11565b6101e16103323660046111fb565b610a91565b6101e16103453660046112f9565b610ad3565b6101e16103583660046112f9565b610cf8565b610365610f17565b61036d610f43565b565b610377610f17565b6001600160a01b03811661039e576040516309f71e4960e21b815260040160405180910390fd5b600680546001600160a01b038381166001600160a01b0319831681179093556040519116919082907f605ca4e43489fb38b91aa63dd9147cd3847957694b080b9285ec898b34269f0c905f90a35050565b6103f7610f17565b61036d5f610f97565b610408610f17565b61271081111561042b5760405163050bde5d60e01b815260040160405180910390fd5b600880549082905560408051828152602081018490527f5ec5620e288c4be955ccb6cfb3d55431a8fed5c4c96ffacc4b9506360695f64e910160405180910390a15050565b610478610f17565b61036d610fe6565b610488610f17565b6001600160a01b0385166104af576040516309f71e4960e21b815260040160405180910390fd5b6040805160808082018352861515808352861515602080850182815285870189815260608088018a81526001600160a01b038f165f8181526002808852908c90209a518b54965161ffff1990971690151561ff0019161761010096151596909602959095178a55925160018a015551979092019690965586519384529083019190915293810186905292830184905290917f38135c542dd610e87c0bd4e3b182d6cb592482822af2ed07903e33552a57acc8910160405180910390a25050505050565b61057a611028565b6006546001600160a01b031633146105a5576040516304021b6960e51b815260040160405180910390fd5b6105ad611052565b6001600160a01b0384165f908152600260208181526040928390208351608081018552815460ff80821615158084526101009092041615159382019390935260018201549481019490945290910154606083015261061e576040516329aff57f60e21b815260040160405180910390fd5b80602001516106405760405163a5f35e5360e01b815260040160405180910390fd5b825f0361066057604051630435888160e41b815260040160405180910390fd5b5f8281526004602052604090205460ff161561068f57604051632b9e548d60e21b815260040160405180910390fd5b5f828152600460205260409020805460ff191660011790556106bb6001600160a01b038616858561107c565b81846001600160a01b0316866001600160a01b03167f65539f13b9103713b367dd130a9f93c98cdb1fe4e4db39353cd85e03f7e6dd2e8660405161070191815260200190565b60405180910390a45061071360018055565b50505050565b610721610f17565b610729611052565b6007546001600160a01b0316610752576040516309f71e4960e21b815260040160405180910390fd5b6001600160a01b0382165f90815260056020526040902054801580610775575081155b8061077f57508082115b1561079d576040516365a3d53160e11b815260040160405180910390fd5b6107a78282611350565b6001600160a01b038085165f818152600560205260409020929092556007546107d29291168461107c565b6007546040518381526001600160a01b03918216918516907f5e110f8bc8a20b65dcc87f224bdf1cc039346e267118bae2739847f07321ffa89060200160405180910390a35061082160018055565b5050565b61082d611028565b6006546001600160a01b03163314610858576040516304021b6960e51b815260040160405180910390fd5b610860611052565b6001600160a01b0384165f908152600260208181526040928390208351608081018552815460ff8082161515808452610100909204161515938201939093526001820154948101949094529091015460608301526108d1576040516329aff57f60e21b815260040160405180910390fd5b8060200151156108f457604051631215e12b60e21b815260040160405180910390fd5b825f0361091457604051630435888160e41b815260040160405180910390fd5b5f8281526004602052604090205460ff161561094357604051632b9e548d60e21b815260040160405180910390fd5b5f82815260046020819052604091829020805460ff1916600117905590516340c10f1960e01b81526001600160a01b038716916340c10f199161099e9188918891016001600160a01b03929092168252602082015260400190565b5f604051808303815f87803b1580156109b5575f5ffd5b505af11580156109c7573d5f5f3e3d5ffd5b5050505081846001600160a01b0316866001600160a01b03167f68bb9b2537134496fb73a4dcf530be505afc24bb46338e8d4431a74d7e3337598660405161070191815260200190565b610a19610f17565b6001600160a01b038116610a40576040516309f71e4960e21b815260040160405180910390fd5b600780546001600160a01b038381166001600160a01b0319831681179093556040519116919082907fa92ff4390fe6943f0b30e8fe715dde86f85ab79b2b2c640a10fc094cc4036cc8905f90a35050565b610a99610f17565b6001600160a01b038116610ac757604051631e4fbdf760e01b81525f60048201526024015b60405180910390fd5b610ad081610f97565b50565b610adb611028565b610ae3611052565b6001600160a01b0384165f908152600260208181526040928390208351608081018552815460ff808216151580845261010090920416151593820193909352600182015494810194909452909101546060830152610b54576040516329aff57f60e21b815260040160405180910390fd5b8060200151610b765760405163a5f35e5360e01b815260040160405180910390fd5b835f03610b9657604051630435888160e41b815260040160405180910390fd5b5f8160400151118015610bac5750806040015184105b15610bca5760405163de1b697160e01b815260040160405180910390fd5b5f8160600151118015610be05750806060015184115b15610bfe576040516316cbfd5560e21b815260040160405180910390fd5b610c136001600160a01b0386163330876110e0565b5f610c1d85611119565b90505f610c2a8287611350565b90508115610c5f576001600160a01b0387165f9081526005602052604081208054849290610c59908490611363565b90915550505b6001600160a01b0387165f90815260036020526040812080548290610c8390611376565b9182905550604080518981526020810185905290810185905260608101829052608081018890529091506001600160a01b038087169133918b16907f167411dec10492cb3416773dabe31f8d391b2cda4839e18ba3e0fcfad86eadb69060a00160405180910390a45050505061071360018055565b610d00611028565b610d08611052565b6001600160a01b0384165f908152600260208181526040928390208351608081018552815460ff808216151580845261010090920416151593820193909352600182015494810194909452909101546060830152610d79576040516329aff57f60e21b815260040160405180910390fd5b806020015115610d9c57604051631215e12b60e21b815260040160405180910390fd5b835f03610dbc57604051630435888160e41b815260040160405180910390fd5b5f8160400151118015610dd25750806040015184105b15610df05760405163de1b697160e01b815260040160405180910390fd5b5f8160600151118015610e065750806060015184115b15610e24576040516316cbfd5560e21b815260040160405180910390fd5b610e396001600160a01b0386163330876110e0565b604051630852cd8d60e31b8152600481018590526001600160a01b038616906342966c68906024015f604051808303815f87803b158015610e78575f5ffd5b505af1158015610e8a573d5f5f3e3d5ffd5b505050506001600160a01b0385165f90815260036020526040812080548290610eb290611376565b918290555060408051878152602081018390529081018690529091506001600160a01b038085169133918916907f7bda60fe4ac8b060bd2fc718593d5c2690ef67e79faef2eac5457d48d5ed8aef9060600160405180910390a4505061071360018055565b5f546001600160a01b0316331461036d5760405163118cdaa760e01b8152336004820152602401610abe565b610f4b61114b565b5f805460ff60a01b191690557f5db9ee0a495bf2e6ff9c91a7834c1ba4fdd244a5e8aa4e537bd38aeae4b073aa335b6040516001600160a01b03909116815260200160405180910390a1565b5f80546001600160a01b038381166001600160a01b0319831681178455604051919092169283917f8be0079c531659141344cd1fd0a4f28419497f9722a3daafe3b4186f6b6457e09190a35050565b610fee611028565b5f805460ff60a01b1916600160a01b1790557f62e78cea01bee320cd4e420270b5ea74000d11b0c9f74754ebdbfc544b05a258610f7a3390565b5f54600160a01b900460ff161561036d5760405163d93c066560e01b815260040160405180910390fd5b60026001540361107557604051633ee5aeb560e01b815260040160405180910390fd5b6002600155565b6040516001600160a01b038381166024830152604482018390526110db91859182169063a9059cbb906064015b604051602081830303815290604052915060e01b6020820180516001600160e01b038381831617835250505050611174565b505050565b6040516001600160a01b0384811660248301528381166044830152606482018390526107139186918216906323b872dd906084016110a9565b5f6008545f0361112a57505f919050565b6127106008548361113b919061138e565b61114591906113a5565b92915050565b5f54600160a01b900460ff1661036d57604051638dfc202b60e01b815260040160405180910390fd5b5f5f60205f8451602086015f885af180611193576040513d5f823e3d81fd5b50505f513d915081156111aa5780600114156111b7565b6001600160a01b0384163b155b1561071357604051635274afe760e01b81526001600160a01b0385166004820152602401610abe565b80356001600160a01b03811681146111f6575f5ffd5b919050565b5f6020828403121561120b575f5ffd5b611214826111e0565b9392505050565b5f6020828403121561122b575f5ffd5b5035919050565b803580151581146111f6575f5ffd5b5f5f5f5f5f60a08688031215611255575f5ffd5b61125e866111e0565b945061126c60208701611232565b935061127a60408701611232565b94979396509394606081013594506080013592915050565b5f5f5f5f608085870312156112a5575f5ffd5b6112ae856111e0565b93506112bc602086016111e0565b93969395505050506040820135916060013590565b5f5f604083850312156112e2575f5ffd5b6112eb836111e0565b946020939093013593505050565b5f5f5f5f6080858703121561130c575f5ffd5b611315856111e0565b93506020850135925060408501359150611331606086016111e0565b905092959194509250565b634e487b7160e01b5f52601160045260245ffd5b818103818111156111455761114561133c565b808201808211156111455761114561133c565b5f600182016113875761138761133c565b5060010190565b80820281158282048414176111455761114561133c565b5f826113bf57634e487b7160e01b5f52601260045260245ffd5b50049056fea264697066735822122011100935f0e6ac7c82b3c915bce19b48c7d00a3a01af63e413c3984974d9452564736f6c634300081c0033",
  "linkReferences": {},
  "deployedLinkReferences": {},
  "immutableReferences": {},
  "inputSourceName": "project/contracts/BridgeCore.sol",
  "buildInfoId": "solc-0_8_28-dee28950cb753f7837fe72e20c0910a942960006"
}