{
  "_format": "hh3-artifact-1",
  "contractName": "WrappedToken",
  "sourceName": "contracts/WrappedToken.sol",
  "abi": [
    {
      "inputs": [
        {
          "internalType": "string",
          "name": "name_",
          "type": "string"
        },
        {
          "internalType": "string",
          "name": "symbol_",
          "type": "string"
        },
        {
          "internalType": "address",
          "name": "bridge_",
          "type": "address"
        },
        {
          "internalType": "uint8",
          "name": "decimals_",
          "type": "uint8"
        }
      ],
      "stateMutability": "nonpayable",
      "type": "constructor"
    },
    {
      "inputs": [
        {
          "internalType": "address",
          "name": "spender",
          "type": "address"
        },
        {
          "internalType": "uint256",
          "name": "allowance",
          "type": "uint256"
        },
        {
          "internalType": "uint256",
          "name": "needed",
          "type": "uint256"
        }
      ],
      "name": "ERC20InsufficientAllowance",
      "type": "error"
    },
    {
      "inputs": [
        {
          "internalType": "address",
          "name": "sender",
          "type": "address"
        },
        {
          "internalType": "uint256",
          "name": "balance",
          "type": "uint256"
        },
        {
          "internalType": "uint256",
          "name": "needed",
          "type": "uint256"
        }
      ],
      "name": "ERC20InsufficientBalance",
      "type": "error"
    },
    {
      "inputs": [
        {
          "internalType": "address",
          "name": "approver",
          "type": "address"
        }
      ],
      "name": "ERC20InvalidApprover",
      "type": "error"
    },
    {
      "inputs": [
        {
          "internalType": "address",
          "name": "receiver",
          "type": "address"
        }
      ],
      "name": "ERC20InvalidReceiver",
      "type": "error"
    },
    {
      "inputs": [
        {
          "internalType": "address",
          "name": "sender",
          "type": "address"
        }
      ],
      "name": "ERC20InvalidSender",
      "type": "error"
    },
    {
      "inputs": [
        {
          "internalType": "address",
          "name": "spender",
          "type": "address"
        }
      ],
      "name": "ERC20InvalidSpender",
      "type": "error"
    },
    {
      "inputs": [],
      "name": "WrappedToken__NotBridge",
      "type": "error"
    },
    {
      "inputs": [],
      "name": "WrappedToken__ZeroAddress",
      "type": "error"
    },
    {
      "anonymous": false,
      "inputs": [
        {
          "indexed": true,
          "internalType": "address",
          "name": "owner",
          "type": "address"
        },
        {
          "indexed": true,
          "internalType": "address",
          "name": "spender",
          "type": "address"
        },
        {
          "indexed": false,
          "internalType": "uint256",
          "name": "value",
          "type": "uint256"
        }
      ],
      "name": "Approval",
      "type": "event"
    },
    {
      "anonymous": false,
      "inputs": [
        {
          "indexed": true,
          "internalType": "address",
          "name": "from",
          "type": "address"
        },
        {
          "indexed": true,
          "internalType": "address",
          "name": "to",
          "type": "address"
        },
        {
          "indexed": false,
          "internalType": "uint256",
          "name": "value",
          "type": "uint256"
        }
      ],
      "name": "Transfer",
      "type": "event"
    },
    {
      "inputs": [
        {
          "internalType": "address",
          "name": "owner",
          "type": "address"
        },
        {
          "internalType": "address",
          "name": "spender",
          "type": "address"
        }
      ],
      "name": "allowance",
      "outputs": [
        {
          "internalType": "uint256",
          "name": "",
          "type": "uint256"
        }
      ],
      "stateMutability": "view",
      "type": "function"
    },
    {
      "inputs": [
        {
          "internalType": "address",
          "name": "spender",
          "type": "address"
        },
        {
          "internalType": "uint256",
          "name": "value",
          "type": "uint256"
        }
      ],
      "name": "approve",
      "outputs": [
        {
          "internalType": "bool",
          "name": "",
          "type": "bool"
        }
      ],
      "stateMutability": "nonpayable",
      "type": "function"
    },
    {
      "inputs": [
        {
          "internalType": "address",
          "name": "account",
          "type": "address"
        }
      ],
      "name": "balanceOf",
      "outputs": [
        {
          "internalType": "uint256",
          "name": "",
          "type": "uint256"
        }
      ],
      "stateMutability": "view",
      "type": "function"
    },
    {
      "inputs": [],
      "name": "bridge",
      "outputs": [
        {
          "internalType": "address",
          "name": "",
          "type": "address"
        }
      ],
      "stateMutability": "view",
      "type": "function"
    },
    {
      "inputs": [
        {
          "internalType": "uint256",
          "name": "amount",
          "type": "uint256"
        }
      ],
      "name": "burn",
      "outputs": [],
      "stateMutability": "nonpayable",
      "type": "function"
    },
    {
      "inputs": [],
      "name": "decimals",
      "outputs": [
        {
          "internalType": "uint8",
          "name": "",
          "type": "uint8"
        }
      ],
      "stateMutability": "view",
      "type": "function"
    },
    {
      "inputs": [
        {
          "internalType": "address",
          "name": "to",
          "type": "address"
        },
        {
          "internalType": "uint256",
          "name": "amount",
          "type": "uint256"
        }
      ],
      "name": "mint",
      "outputs": [],
      "stateMutability": "nonpayable",
      "type": "function"
    },
    {
      "inputs": [],
      "name": "name",
      "outputs": [
        {
          "internalType": "string",
          "name": "",
          "type": "string"
        }
      ],
      "stateMutability": "view",
      "type": "function"
    },
    {
      "inputs": [],
      "name": "symbol",
      "outputs": [
        {
          "internalType": "string",
          "name": "",
          "type": "string"
        }
      ],
      "stateMutability": "view",
      "type": "function"
    },
    {
      "inputs": [],
      "name": "totalSupply",
      "outputs": [
        {
          "internalType": "uint256",
          "name": "",
          "type": "uint256"
        }
      ],
      "stateMutability": "view",
      "type": "function"
    },
    {
      "inputs": [
        {
          "internalType": "address",
          "name": "to",
          "type": "address"
        },
        {
          "internalType": "uint256",
          "name": "value",
          "type": "uint256"
        }
      ],
      "name": "transfer",
      "outputs": [
        {
          "internalType": "bool",
          "name": "",
          "type": "bool"
        }
      ],
      "stateMutability": "nonpayable",
      "type": "function"
    },
    {
      "inputs": [
        {
          "internalType": "address",
          "name": "from",
          "type": "address"
        },
        {
          "internalType": "address",
          "name": "to",
          "type": "address"
        },
        {
          "internalType": "uint256",
          "name": "value",
          "type": "uint256"
        }
      ],
      "name": "transferFrom",
      "outputs": [
        {
          "internalType": "bool",
          "name": "",
          "type": "bool"
        }
      ],
      "stateMutability": "nonpayable",
      "type": "function"
    }
  ],
  "bytecode": "0x60c060405234801561000f575f5ffd5b50604051610bef380380610bef83398101604081905261002e9161012c565b8383600361003c838261024c565b506004610049828261024c565b5050506001600160a01b03821661007357604051630e18451360e41b815260040160405180910390fd5b6001600160a01b0390911660805260ff1660a052506103069050565b634e487b7160e01b5f52604160045260245ffd5b5f82601f8301126100b2575f5ffd5b81516001600160401b038111156100cb576100cb61008f565b604051601f8201601f19908116603f011681016001600160401b03811182821017156100f9576100f961008f565b604052818152838201602001851015610110575f5ffd5b8160208501602083015e5f918101602001919091529392505050565b5f5f5f5f6080858703121561013f575f5ffd5b84516001600160401b03811115610154575f5ffd5b610160878288016100a3565b602087015190955090506001600160401b0381111561017d575f5ffd5b610189878288016100a3565b604087015190945090506001600160a01b03811681146101a7575f5ffd5b606086015190925060ff811681146101bd575f5ffd5b939692955090935050565b600181811c908216806101dc57607f821691505b6020821081036101fa57634e487b7160e01b5f52602260045260245ffd5b50919050565b601f82111561024757805f5260205f20601f840160051c810160208510156102255750805b601f840160051c820191505b81811015610244575f8155600101610231565b50505b505050565b81516001600160401b038111156102655761026561008f565b6102798161027384546101c8565b84610200565b6020601f8211600181146102ab575f83156102945750848201515b5f19600385901b1c1916600184901b178455610244565b5f84815260208120601f198516915b828110156102da57878501518255602094850194600190920191016102ba565b50848210156102f757868401515f19600387901b60f8161c191681555b50505050600190811b01905550565b60805160a0516108ba6103355f395f61012201525f81816101f401528181610305015261035c01526108ba5ff3fe608060405234801561000f575f5ffd5b50600436106100b1575f3560e01c806342966c681161006e57806342966c681461016157806370a082311461017457806395d89b411461019c578063a9059cbb146101a4578063dd62ed3e146101b7578063e78cea92146101ef575f5ffd5b806306fdde03146100b5578063095ea7b3146100d357806318160ddd146100f657806323b872dd14610108578063313ce5671461011b57806340c10f191461014c575b5f5ffd5b6100bd61022e565b6040516100ca9190610713565b60405180910390f35b6100e66100e1366004610763565b6102be565b60405190151581526020016100ca565b6002545b6040519081526020016100ca565b6100e661011636600461078b565b6102d7565b60405160ff7f00000000000000000000000000000000000000000000000000000000000000001681526020016100ca565b61015f61015a366004610763565b6102fa565b005b61015f61016f3660046107c5565b610351565b6100fa6101823660046107dc565b6001600160a01b03165f9081526020819052604090205490565b6100bd6103a7565b6100e66101b2366004610763565b6103b6565b6100fa6101c53660046107fc565b6001600160a01b039182165f90815260016020908152604080832093909416825291909152205490565b6102167f000000000000000000000000000000000000000000000000000000000000000081565b6040516001600160a01b0390911681526020016100ca565b60606003805461023d9061082d565b80601f01602080910402602001604051908101604052809291908181526020018280546102699061082d565b80156102b45780601f1061028b576101008083540402835291602001916102b4565b820191905f5260205f20905b81548152906001019060200180831161029757829003601f168201915b5050505050905090565b5f336102cb8185856103c3565b60019150505b92915050565b5f336102e48582856103d5565b6102ef858585610456565b506001949350505050565b336001600160a01b037f0000000000000000000000000000000000000000000000000000000000000000161461034357604051630d82c4bf60e11b815260040160405180910390fd5b61034d82826104b3565b5050565b336001600160a01b037f0000000000000000000000000000000000000000000000000000000000000000161461039a57604051630d82c4bf60e11b815260040160405180910390fd5b6103a433826104e7565b50565b60606004805461023d9061082d565b5f336102cb818585610456565b6103d0838383600161051b565b505050565b6001600160a01b038381165f908152600160209081526040808320938616835292905220545f19811015610450578181101561044257604051637dc7a0d960e11b81526001600160a01b038416600482015260248101829052604481018390526064015b60405180910390fd5b61045084848484035f61051b565b50505050565b6001600160a01b03831661047f57604051634b637e8f60e11b81525f6004820152602401610439565b6001600160a01b0382166104a85760405163ec442f0560e01b81525f6004820152602401610439565b6103d08383836105ed565b6001600160a01b0382166104dc5760405163ec442f0560e01b81525f6004820152602401610439565b61034d5f83836105ed565b6001600160a01b03821661051057604051634b637e8f60e11b81525f6004820152602401610439565b61034d825f836105ed565b6001600160a01b0384166105445760405163e602df0560e01b81525f6004820152602401610439565b6001600160a01b03831661056d57604051634a1406b160e11b81525f6004820152602401610439565b6001600160a01b038085165f908152600160209081526040808320938716835292905220829055801561045057826001600160a01b0316846001600160a01b03167f8c5be1e5ebec7d5bd14f71427d1e84f3dd0314c0f7b2291e5b200ac8c7c3b925846040516105df91815260200190565b60405180910390a350505050565b6001600160a01b038316610617578060025f82825461060c9190610865565b909155506106879050565b6001600160a01b0383165f90815260208190526040902054818110156106695760405163391434e360e21b81526001600160a01b03851660048201526024810182905260448101839052606401610439565b6001600160a01b0384165f9081526020819052604090209082900390555b6001600160a01b0382166106a3576002805482900390556106c1565b6001600160a01b0382165f9081526020819052604090208054820190555b816001600160a01b0316836001600160a01b03167fddf252ad1be2c89b69c2b068fc378daa952ba7f163c4a11628f55a4df523b3ef8360405161070691815260200190565b60405180910390a3505050565b602081525f82518060208401528060208501604085015e5f604082850101526040601f19601f83011684010191505092915050565b80356001600160a01b038116811461075e575f5ffd5b919050565b5f5f60408385031215610774575f5ffd5b61077d83610748565b946020939093013593505050565b5f5f5f6060848603121561079d575f5ffd5b6107a684610748565b92506107b460208501610748565b929592945050506040919091013590565b5f602082840312156107d5575f5ffd5b5035919050565b5f602082840312156107ec575f5ffd5b6107f582610748565b9392505050565b5f5f6040838503121561080d575f5ffd5b61081683610748565b915061082460208401610748565b90509250929050565b600181811c9082168061084157607f821691505b60208210810361085f57634e487b7160e01b5f52602260045260245ffd5b50919050565b808201808211156102d157634e487b7160e01b5f52601160045260245ffdfea26469706673582212209a7a74f6989274a0616e2c8e9c5e76c95cca2ce3423dfc9f6345cfb6fa4ab8cc64736f6c634300081c0033",
  "linkReferences": {},
  "deployedLinkReferences": {},
  "immutableReferences": {
    "795": [
      {
        "length": 32,
        "start": 500
      },
      {
        "length": 32,
        "start": 773
      },
      {
        "length": 32,
        "start": 860
      }
    ],
    "798": [
      {
        "length": 32,
        "start": 290
      }
    ]
  },
  "inputSourceName": "project/contracts/WrappedToken.sol",
  "buildInfoId": "solc-0_8_28-b319ba67b2b6a3cc6dc35e3f973f8fcc24873ade"
}